:020000040800F2
:10000000100B0020590200088D1C00088102000816
:1000100000000000000000000000000000000000E0
:100020000000000000000000000000008302000843
:100030000000000000000000850200086F060008B4
:100040008902000889020008890200088902000864
:1000500089020008AB200008890200088902000814
:1000600000000000890200088902000889020008D7
:100070008902000889020008890200088902000834
:10008000890200080000000000000000890200084A
:10009000000000008902000889020008611F0008B2
:1000A0000000000089020008890200088902000897
:1000B0003705000889020008890200088902000843
:1000C0000348854602F04EFB00480047B70200088F
:1000D000100B002000205949096801221143574A9A
:1000E000116000BF55490968022211400029F9D06A
:1000F0005102524A5160114649680122120491434B
:100100004E4A5160114609680122120691434B4A3A
:100110001160114609681F2292069143474A1160F7
:1001200011460968032292061143444A11601121C5
:10013000434A1160414909680122120611433F4AAE
:10014000116000BF3D490968012252061140002993
:10015000F8D03A49496889088900384A51601146FF
:10016000496802221143354A516005E03349496824
:100170008905080E8007800F0228F7D1704710B557
:10018000FFF7A8FF10BD10B52C4880690C2108436B
:100190002A49886108460068012108432749086008
:1001A00008464068274908402449486008460068D6
:1001B0002549084021490860084600680121890452
:1001C00088431E490860084640687F210904884327
:1001D0001A494860084600680003000B08609F2029
:1001E00000048860FFF7CBFF0920C006406AFF21AA
:1001F000090588430921C90648620846006A13496F
:1002000008430921C90608620846406A10490843A4
:100210000921C90648620F48006A0C4908430D4984
:1002200008620846406A094908430A494862034887
:1002300080690C2188430149886110BD001002408B
:10024000002002400000FFF0FFFFF6FE777777778F
:1002500077770770000400480C4880F308880C4842
:100260000168090E0B4A914205D10B480B49016008
:100270000B480C4901600C4880470C480047FEE7DA
:10028000FEE7FEE7FEE7FEE7FEE70000100B0020BA
:10029000040000001F0000001810024001000000D0
:1002A000000001400000000087010008C1000008B4
:1002B0003448006870471FB50125ED0500BF324C7A
:1002C00032A00068039000BF28466D1E0028FBD1B5
:1002D00001F0DAFF01202E49087000F09DF800F0CF
:1002E000CFF92C49032002F053F806212A4801F0E7
:1002F000ABFB01F095FE02F0ABFB04F003F82149E3
:10030000432003F069FE00202449086000BF234811
:1003100000680528FBD31B48006800781949096864
:100320004978184A12689278009201910290154813
:100330000068C37813480068027912480068417960
:1003400017A002F0B7FB20780B2810DD20781B28BF
:100350000DDA207869464873532003F04FFC0222DF
:1003600003A9042003F084FC562003F047FCFF207F
:10037000413003F0B7FB04E0322000F063F901F0F4
:1003800035FCF9E70000002004F8FF1FC012000050
:100390003C000020E204000000380040140000206F
:1003A0000D0A4D41433A253032782D253032782DD3
:1003B000253032782D253032782D253032782D2594
:1003C0003032780D0A00000000BF704700BF874A36
:1003D0009268D207D20F002AF9D0C2B2834B1A60BA
:1003E000704710B50246002000BF0FE0135C804C40
:1003F000235400BF7D4B9B68DB07DB0F002BF9D03C
:100400007B4B1B5C794C2360431CD8B28842EDDBEC
:100410000023784C238010BD00B587B0012148042B
:1004200001F014F80121480400F0F4FF1C21684693
:100430000171032141710121817101A800F038FD92
:10044000012202210920C00600F0D9FA012203216D
:100450000920C00600F0D3FA6748006802903021F6
:10046000684681810021C1810182818218214182F7
:1004700002A95E4801F01DFA012202215B4801F049
:100480006BFA00220121594801F066FA0121574810
:1004900001F056FA04216846018303218176182170
:1004A000C17606A90920C00600F0FFF908216846B8
:1004B00001830421C17606A90920C00600F0F5F9E0
:1004C00007B000BD1FB50024684600F01FFF0021E3
:1004D000464801F035FA029C47480168204602F080
:1004E000AFF800094149086243480168204602F01C
:1004F000A7F80007000F3D49486201213F4801F07D
:100500001FFA1FBD30B502463D4B1B785B18642BAC
:1005100010DA002007E0135C394C24782418394D98
:100520002B55431CD8B28842F5DB354B1B785B1842
:10053000334C237030BD10B502212C4801F032FA43
:1005400000281CD00221294801F036FA274801F082
:100550001AFA2D492D4A128888542D4800687D21A9
:10056000C90040182B49086028480088401C2749CA
:10057000088008460088642801DB002008800121EB
:100580001A4801F00FFA00282FD00121174801F076
:1005900013FA19480168204802F052F81C4909680A
:1005A00040181E4908601E4800781549097888429D
:1005B00016DA1B4802780078401C194B1870114855
:1005C000815C0A4801F0DCF9154800780C4909788B
:1005D00088420AD100200A4908701149087004E0D5
:1005E00000220121014801F0B7F910BD004400408C
:1005F000C80100200E000020080000200038014043
:100600002F00002079030020DD03002030000020AF
:100610001400002040000020204E00003800002080
:100620003200002001B5002106E00A2100BF084683
:100630004A1E91B20028FAD10098421E009200286A
:10064000F3D108BD01B5002106E0064900BF084608
:100650004A1E91B20028FAD10098421E009200284A
:10066000F3D108BDEE0200002B480068704710B5BA
:1006700029480068401C2849086003F0FFF810BDB5
:1006800010B5264C601E2649884200D90CE0601E39
:10069000244948610321081F00F007F80020214980
:1006A00088610720086100BF10BD10B5002819DA65
:1006B0001D4A03071B0F083B9B089B00D25883076A
:1006C000DC0EFF23A3409A438B071B0E8407E40E26
:1006D000A3401A43144B0407240F083CA408A400A9
:1006E0001A5118E0114A03231B02D21883089B00F9
:1006F000D2588307DC0EFF23A3409A438B071B0EBF
:100700008407E40EA3401A43084B032424021B1958
:100710008408A4001A5110BD1400002080BB000002
:10072000FFFFFF0000E000E01CED00E000E100E062
:1007300000203E49086048608860C8603C484861C5
:100740007047002139498279002A35D00A4612685B
:1007500003689A430B461A600A46526803689A4334
:100760000B465A60027951180A6803681A430A60F6
:100770002E4A926803689A432C4B9A601A46D268B4
:1007800003689A43294BDA604279102A0CD11A4641
:10079000926803681A43254B9A601A46D268036828
:1007A0001A43224BDA600EE02049427951180A6858
:1007B00003681A430A6006E01C49027951180A6866
:1007C00003689A430A6070470021016001710C219F
:1007D0004171002181717047144909690143134A2D
:1007E0001161704701460020104A52690A40002AF0
:1007F00001D0012000E0002070470C49486170479B
:10080000014600200022094B1B680B401A46074B8B
:100810005B690B40002B03D0002A01D0012000E0CF
:100820000020704701494861704700000004014002
:10083000FFFF1F0010B504461720C006201800282F
:1008400008D001218902401A0ED0401A16D0401A51
:1008500028D11DE00121480400F0DCFD0021012029
:10086000400400F0D7FD1EE00121880400F0D2FD15
:1008700000210120800400F0CDFD14E00121C80416
:1008800000F0C8FD00210120C00400F0C3FD0AE013
:100890000121080500F0BEFD00210120000500F047
:1008A000B9FD00E000BF00BF10BDFCB50246002549
:1008B000002601960020002300240096CE783507FC
:1008C0002D0FCE7810273E40002E01D08E78354374
:1008D0000E78002E27D01468002021E001268640E3
:1008E00033460E881E400196019E9E4217D183001A
:1008F0000F269E4000962746009EB7433C462E4654
:100900009E403443CE78282E03D10126864056617E
:1009100005E0CE78482E02D1012686401661401CA3
:100920000828DBD314600E88FF2E2CDD54680020CD
:1009300026E0064608360127B7403B460E881E4093
:100940000196019E9E421AD183000F269E4000967A
:100950002746009EB7433C462E469E403443CE7801
:10096000282E04D1064608360127B7405761CE78B5
:10097000482E04D1064608360127B7401761401CAF
:100980000828D6D35460FCBD0021C9430180022150
:1009900081700421C17070470246002093680B40AB
:1009A000002B01D0012000E000207047014688683C
:1009B00080B2704702460020D3680B40002B01D064
:1009C000012000E0002070470146C86880B27047EF
:1009D0000161704741617047002A01D0016100E068
:1009E00041617047C16070470122120413460B43F6
:1009F0001A46826181618261826982697047F0B5BD
:100A0000002300244D07EE0E1546B5402B46CD10B1
:100A1000002D0BD1056A4E07F70E0F26BE40B543D9
:100A20000562056A1D432C4604620AE0456A4E07CA
:100A3000F70E0F26BE40B5434562456A1D432C465E
:100A40004462F0BD10B50446FD482018002809D1C5
:100A50000121480500F016FD00210120400500F0AD
:100A600011FD00E000BF00BF10BDF0B587B0044627
:100A70000E460025F34806900027002005906C20C4
:100A8000005BF14908406C21085301A800F03EFCCE
:100A900003980690ED48069901F0D2FD0590EB48C9
:100AA000B16801F0CDFD074600BFE949B068884252
:100AB00010D83846059901F0C3FDC003050C258305
:100AC000218B059A5143781A114601F0B9FD85B280
:100AD000A5820FE03846059901F0B2FDC003050C70
:100AE0002584218C059A5143781A114601F0A8FDFE
:100AF00085B2A5832588D74805407088FF216131DC
:100B000008433188084305462580258E032080034D
:100B100005402586002020870120A08707B0F0BD72
:100B200001210180A821818002214180C849816082
:100B30007047002906D06C22125A01231A436C23F5
:100B40001A5205E06C22125ABF4B1A406C231A52FB
:100B50007047002915D0C04A1288022A06D188227F
:100B6000125802231A4388231A5011E0BA4A1288F5
:100B7000012A0DD18822125801231A4388231A50C2
:100B800006E088221258B04B9B1E1A4088231A5048
:100B90007047002904D0028820231A43028004E011
:100BA0000288A94B1F3B1A400280704710B50A46C5
:100BB000002100BF6C231B5A022423436C242352C0
:100BC00000BF6C231B5A02242340002BF9D154236D
:100BD0001B5AD9B210BD0A4600218188FF231B028F
:100BE00019405310194381807047002905D082882D
:100BF00001231B031A43828003E08288974B1A402B
:100C000082807047002905D082880123DB021A43C5
:100C1000828003E08288924B1A40828070470429C8
:100C200001D18B010382002A03D0038E0B4303867C
:100C300002E0038E8B4303867047018270470122D6
:100C400052020A43028270470146032000020882D2
:100C500000207047FF2101310182704701460020CA
:100C6000804A1070088AC0B270474B10838070476A
:100C70000246505A70470146002000228A8E7A4B65
:100C800013401846704770B5024600230024002028
:100C9000042908D1734D2D78002D04D18D011582C2
:100CA0000125704E3570948E25460D402B468B42A3
:100CB00001D1012000E0002070BD1CB502460020DB
:100CC0000023019300930123DB030B40002B07D08B
:100CD000136F0B40002B01D0012013E0002011E026
:100CE000042908D15F4B1B78002B04D18B011382A0
:100CF00001235C4C2370938E0B40002B01D001200C
:100D000000E000201CBDCA07D20F002A01D04422F7
:100D1000125A02220A40022A01D14822125A0822FB
:100D20000A40082A01D14C22125A20220A40202AC5
:100D300001D15022125A40220A40402A01D15422A5
:100D4000125A80220A40802A01D15822125AFF22C8
:100D500001320A40FF2301339A4201D15C22125A28
:100D6000012252020A4001235B029A4201D1602211
:100D7000125A012292020A4001239B029A4201D197
:100D80006422125A0122D2020A400123DB029A4253
:100D900001D16822125A704702460020938E0B4000
:100DA000002B01D0012000E000207047CA07D20FBD
:100DB000002A01D04422125A02220A40022A01D1FA
:100DC0004822125A08220A40082A01D14C22125AFB
:100DD00020220A40202A01D15022125A40220A40E1
:100DE000402A01D15422125A80220A40802A01D17D
:100DF0005822125AFF2201320A40FF2301339A423D
:100E000001D15C22125A012252020A4001235B02E4
:100E10009A4201D16022125A012292020A40012311
:100E20009B029A4201D16422125A0122D2020A4044
:100E30000123DB029A4201D16822125A7047000056
:100E400000ACFFBF00127A00FEFF000000CA9A3B10
:100E5000A08601008AFE00001A000020FFEF0000BB
:100E6000FFF7000018000020FF3F79000D490860DF
:100E700070470C49486070470A49886070470A48C3
:100E800008490860704709480649086070470146EC
:100E90000020044AD2680A40002A01D0012000E064
:100EA0000020704700300040AAAA0000CCCC00000F
:100EB00000218278002A27D0274A03231B02D21858
:100EC00003789B109B00D15802789207D30EFF2223
:100ED0009A400B469343194642789207120E0378C4
:100EE0009B07DB0E9A4011431B4A03231B02D218B7
:100EF00003789B109B00D1500278D306DB0E0122B1
:100F00009A40154B1A6007E00278D306DB0E0122E7
:100F10009A40114B80331A6070477047002905D002
:100F20000E4A126902430D4B1A6104E00B4A126922
:100F300082430A4B1A617047042806D1084909699F
:100F400004221143064A116105E00549096904229A
:100F50009143034A1161704700E100E000ED00E0B9
:100F600000E000E0FE48006801210843FC490860F9
:100F700008464068FB490840F9494860084600684F
:100F8000F9490840F64908600846006801218904CB
:100F90008843F349086008464068C3210904884330
:100FA000EF49486008460068F0490840EC4908608D
:100FB00008468068EE490840E94988607047E8497A
:100FC0000968012212049143E54A1160114609683B
:100FD000012292049143E24A1160002808D00121C5
:100FE0000904411A0CD003221204891A18D10FE007
:100FF000DB490968052212049143D94A116010E0C7
:10100000D7490968012212041143D54A116008E04A
:10101000D3490968052212041143D14A116000E046
:1010200000BF00BF704710B501460022002300201A
:101030004A11012A02D1CA4C236801E0C84C636AF4
:10104000CA06D20E012494401C40002C01D001207D
:1010500000E0002010BD38B50020009000240025DD
:1010600000BF3120FFF7DFFF05460098401C0090CD
:10107000002D04D10521090200988842F1D13120C8
:10108000FFF7D1FF002801D0012400E00024204612
:1010900038BD01460020B24A10683F231B020246B9
:1010A0009A4310468A06920C1043AD4A106070476E
:1010B000012806D1AA49096801221143A84A1160F2
:1010C00005E0A7490968C907C90FA54A116070471B
:1010D00030B504460020A24B1868A64B18408B067A
:1010E00015052B4318439E4B186030BD70B506465E
:1010F0000C4600259A4845683F2109042846884344
:10110000054628463043054695484560002C04D1E5
:10111000032207213046FFF7DBFF012080048442D1
:1011200004D1012205213046FFF7D2FF0120C0047F
:10113000844204D1012207213046FFF7C9FF032072
:101140008004844204D1012209213046FFF7C0FF08
:1011500001200005844204D101220B213046FFF713
:10116000B7FF05208004844204D101220D213046BE
:10117000FFF7AEFF0320C004844204D101220F21F7
:101180003046FFF7A5FF07208004844204D10122E6
:1011900011213046FFF79CFF01204005844204D115
:1011A000012213213046FFF793FF09208004844277
:1011B00004D1012215213046FFF78AFF0520C00423
:1011C000844204D1012217213046FFF781FF0B2012
:1011D0008004844204D1012219213046FFF778FFB0
:1011E00003200005844204D101221B213046FFF771
:1011F0006FFF0D208004844204D101221D2130465E
:10120000FFF766FF0720C004844204D101221F219A
:101210003046FFF75DFF70BD002807D050490968D0
:101220000122120611434E4A116006E04C4909683A
:101230000122120691434A4A11607047014600207C
:10124000474A50688008800002460A431046444AD4
:1012500050607047424840680C2108407047014682
:1012600000203F4A5068F02302469A431046024647
:101270000A4310463A4A5060704701460020384AF7
:10128000506807231B0202469A43104602460A434F
:101290001046334A5060704701460020304A50687B
:1012A0000723DB0202469A431046CA0010432C4A29
:1012B00050607047002906D0294A926803021A43F9
:1012C000274B9A6005E0264A926803029A43244B12
:1012D0009A60704722494968032292059143204A47
:1012E000516011464968014351607047002806D09B
:1012F0001B49496A01221143194A516205E0184904
:10130000496A49084900164A51627047FEB50446C9
:10131000002500260020019000900027104840681A
:101320000C2108400546002D04D0042D05D0082DC1
:1013300049D105E01048206048E00F48206045E0B2
:1013400007480068800E461C05480068072109050B
:101350000840000D401C01900148406801210DE04B
:10136000001002400CC0FFF8FFFFF6FEFFFF8F00E9
:1013700062E262FFFFFF8F0300127A000904084057
:1013800000900098002807D16249714308460199EE
:1013900001F056F9206015E05F48406801214904DA
:1013A0000840002807D05D4971430846019901F0C3
:1013B00047F9206006E05A4971430846019901F057
:1013C0003FF9206002E05648206000BF00BF52484D
:1013D0004068F021084005462D095248475D2068C5
:1013E000F84060604C484068072109020840054603
:1013F0002D0A4C48475D6068F840A0604648406848
:10140000C90008400546ED0A4648475D6068F84057
:10141000E060FEBD002905D03F4A526902433E4BC1
:101420005A6104E03C4A526982433B4B5A6170471F
:10143000002905D0384A92690243374B9A6104E08B
:10144000354A92698243344B9A617047002905D02E
:10145000314AD2690243304BDA6104E02E4AD26944
:1014600082432D4BDA617047002905D02A4AD268A1
:101470000243294BDA6004E0274AD2688243264BB4
:10148000DA607047002905D0234A12690243224BD3
:101490001A6104E0204A126982431F4B1A617047A7
:1014A000012806D11C490968C20411431A4A116077
:1014B00006E0194909680122D2049143164A1160D5
:1014C000704715494968072212069143124A516034
:1014D00011464968020611430F4A516070470E4891
:1014E000406A0121090608430B49486270470146DA
:1014F0000020094A92680A40002A01D0012000E039
:10150000002070470449896802041143024A91602F
:1015100070470000001BB7000010024000093D00AA
:1015200000127A001C00002010B50446A7482018BD
:1015300000280DD01F21C902401A13D10121080330
:10154000FFF792FF002101200003FFF78DFF0AE063
:1015500001218803FFF788FF002101208003FFF7A6
:1015600083FF00E000BF00BF10BD10B50022028B5A
:101570000F231B031A404B884C8923430C882343B9
:101580001A430283828B924B1A40CB89CC88234327
:101590000C8923431A43182313438383028C0022AC
:1015A0008B891A4302848B88082B07D0838B0424F1
:1015B00023438383838B0824234383838B888385FE
:1015C00010BD002101804180082181800021C1805F
:1015D0000121018100214181022181810021C181FC
:1015E0007047002904D0028B01231A43028304E0D0
:1015F000028B774B3E331A400283704710B5002AA6
:1016000007D0038B022423430383038A0B43038203
:1016100007E0038A8B430382038B6D4C3D342340E8
:10162000038310BD002A03D0038B0B43038302E026
:10163000038B8B4303837047002A03D0038B0B4338
:10164000038302E0038B8B43038370470A46002128
:10165000838DD9B20260082901DC002901D1130A67
:101660000360102901DC002901D1130C0360182943
:1016700001DC002901D1130E0360704701460020F0
:1016800048688A8D082A02DC8A8D002A02D14A68BD
:10169000120210438A8D102A02DC8A8D002A02D1A0
:1016A0004A68120410438A8D182A02DC8A8D002AA7
:1016B00002D14A6812061043704710B5002A03D0C1
:1016C000038D0B40038503E0038DCC432343038547
:1016D00010BD3F4A3E32914204D0028B01231A438F
:1016E000028304E0028B3A4B3E331A400283704778
:1016F000028B384B1A400283028B0A4302837047E5
:10170000082903D1028B08231A430283102903D12D
:10171000028B10231A4302832D4A3732914203D1A0
:10172000028B0B461A400283294A2F32914203D181
:10173000028B0B461A400283704730B502460B46B7
:101740000024908D082808D110891840002801D065
:10175000012400E00024204630BD908D002804DDE7
:10176000908D082801DC012110E0908D102801DC0B
:1017700002210BE0908D182801DC032106E0908DFA
:101780001F2802DD908D002800D1042110890F252B
:101790002D0228400012884201DB0120DCE70020F6
:1017A000DAE70246002093890B40002B01D001208C
:1017B00000E000207047828A0A4382827047818459
:1017C0007047828B0A4382837047000000C8FFBFC6
:1017D000C0FF0000FFFC0000244800688007800F65
:1017E000224908600020886000212048C160016112
:1017F00041617047014600201C4A10688008800043
:1018000002460A431046194A10607047002905D065
:10181000164A12680243154B1A6004E0134A126814
:101820008243124B1A60704730B500228B071C0FA1
:101830000F23A3401A460D4B08338C10A4001B59EC
:1018400093430A4C08348D10AD00635123468C102D
:10185000A4001B598C07250F0446AC402343034CBE
:1018600008348D10AD00635130BD00000000014010
:1018700010B504465148201800280DD03D2189029A
:10188000401A13D101218803FFF7EEFD002101204A
:101890008003FFF7E9FD0AE001214804FFF7F2FDAC
:1018A000002101204004FFF7EDFD00E000BF00BF74
:1018B00010BDF0B587B004460D4600260020069006
:1018C000059000272746E669CF2130468843064623
:1018D000A888E9880843298908430643E661A66980
:1018E00076097601A889698908430643A66101A89B
:1018F000FFF70CFD3248874202D10498069001E0C0
:10190000039806902968069800F09AFE060929684F
:10191000069800F095FE0007000F059026620598D6
:10192000606207B0F0BD4B21C901016030218180A8
:101930000021C180018118214181002181817047EE
:10194000002904D0826901231A43826103E082697D
:101950001C4B1A4082617047002A03D003690B4375
:10196000036102E003698B4303617047002A03D0DF
:1019700083690B43836102E083698B438361704712
:10198000CAB20260704701464868C0B2704702465A
:10199000002093680B40002B01D0012000E00020C4
:1019A0007047704702460020D3680B40002B01D0DF
:1019B000012000E0002070474161704700BCFFBF7C
:1019C00000380140FEFF000002465A48026000BF96
:1019D00058480089C007C00F0028F9D000BF5548FB
:1019E0000089022318400028F9D052484068C0B24C
:1019F000704710B50121C9034F48FEF7EBFF10BD3A
:101A000010B50121C9034C48FEF7E2FF10BD10B527
:101A1000044608212046FFF773FE10BD10B50446AA
:101A200046492046FFF76CFE10BD10B50446102154
:101A30002046FFF765FE10BD10B504463F49083942
:101A40002046FFF75DFE10BD30B585B004460D465B
:101A5000384884424ED101210014FFF7F7FCFFF70C
:101A6000CFFF012103204004FFF7D4FC04220C2106
:101A70003148FEF7C4FF04220D212F48FEF7BFFFB7
:101A800003220E212C48FEF7BAFF01220F212A481B
:101A9000FEF7B5FFE1136846018003218170102134
:101AA000C17069462448FEF700FFA1142248FEF7E2
:101AB0008FFF211468460180032181701821C170B5
:101AC00069461D48FEF7F1FE611468460180032156
:101AD00081701821C17069461748FEF7E6FEA1140F
:101AE00068460180032181704821C170694612480F
:101AF000FEF7DBFE0421684681800021C1800821B9
:101B0000018100214181012181810021C181058262
:101B1000418201A92046FFF728FD01212046FFF759
:101B200060FD2046FFF773FF2046FFF77EFF05B0FC
:101B300030BD00000038004000040048F7FF0000FE
:101B400010B5C9480078002828D0C8480068C8499E
:101B50000968884222D2C7480068C5490968884296
:101B60001CD2C1480078012807D1C3480069FB2175
:101B70000840C149086120BF10E000F099FBBE4851
:101B8000006904210843BC49086130BFBB480068B4
:101B900001210843B949086000F083FB10BD10B56E
:101BA00072B60020FFF74AFB00BFFFF753FB002887
:101BB000FBD1B2480068012109068843AF4908609B
:101BC0007D24A401601EAE49884200D90CE0601E4D
:101BD000AC4948610321081F00F00CF90020A94915
:101BE00088610720086100BF62B610BD10B501F022
:101BF00067FF002800D110BD9B480078002843D023
:101C00009A4800689A49096888423DD29948006814
:101C100097490968884237D293480078012809D14A
:101C20009949087094480069FB210840924908616D
:101C300020BF29E0022094490870FFF7B0FF8E48CA
:101C40000069042108438C4908618E4800694008F6
:101C500040008C490861894800680121C904084393
:101C600086490860084600680121C9040843834981
:101C70000860084600680121C90408437F490860DC
:101C80000520FEF7CFFC30BF00BFB4E77B4880687B
:101C90000121C905084379498860704710B5802142
:101CA0007A48FEF795FE72B679480078401C78496C
:101CB000087010BD10B576480078401E7449087051
:101CC00008460078002802DC0020087062B68021F7
:101CD0006E48FEF77FFE10BD10B56E4800886E4955
:101CE000098888423AD000F072FC002804D1694883
:101CF00000886949088031E066480088664909889B
:101D0000884212DD634A1278634B1B78D21AD1B233
:101D1000624A614B1B88D01802F0F6FD04465E480B
:101D2000018808195C49088018E05B4A127864232E
:101D30009A1AD1B2594A584B1B88D01802F0E4FDC8
:101D400004465548008800195349088064215248C8
:101D5000008800F08BFC88B24F49088010BD10B598
:101D6000FFF78DF8FFF7B8FF3F480078022806D14B
:101D70004648FEF71BFE40210840002821D1484874
:101D8000007800281DD047480078002819D101228A
:101D900011464548FFF7E0FD424802780078401CB4
:101DA000404B18704148815C3F48FFF7E9FD4048CF
:101DB0000168404800F044FC2D49096840182B494F
:101DC000086029480078022813D12A480068284969
:101DD000096888420DD280212C48FEF7F9FD34486D
:101DE0000168344800F02CFC214909684018214959
:101DF000086010BD10B500281BDA1F4A1C3203070B
:101E00001B0F083B9B089B00D2588307DC0EFF2367
:101E1000A3409A438B071B0E8407E40EA3401A438A
:101E2000154B1C330407240F083CA408A4001A51C6
:101E300018E0214A03231B02D21883089B00D258C2
:101E40008307DC0EFF23A3409A438B071B0E8407F6
:101E5000E40EA3401A43184B032424021B198408E0
:101E6000A4001A5110BD00003C00002038000020E2
:101E7000140000204000002000ED00E000100240AF
:101E8000FFFFFF0000E000E03D00002000040048EC
:101E900044000020300000202C000020DD03002042
:101EA0002F00002032000020004400407903002071
:101EB00008000020204E000000E100E01CB50446B0
:101EC0001721684601700321417001218170FEF7DE
:101ED000EFFF4C4884422ED101214805FFF7B6FAA6
:101EE00021150920C006FEF773FD21156846818083
:101EF0001021C1710321817101A90920C006FEF7DB
:101F0000D4FC21150920C006FEF762FDC0216846F9
:101F10008180022181711C21C17101A93A48FEF71B
:101F2000C4FC012206213848FEF769FD0122072181
:101F30003548FEF764FD00216C200153FF2023305B
:101F40002080552020817720A082552020830020EA
:101F50002087A0872420208601216C2001531CBDEE
:101F600010B528482030808904210840042814D165
:101F70002448FEF71BFF2348008AC1B22348028889
:101F80000088401C214B1880214881541846008845
:101F9000642802DB0020194608801A482030808916
:101FA0002021084020282BD11648FEF7FFFE1548B7
:101FB0002030808A10210840102821D1154800784F
:101FC0001549097888421BDA124801780078401CCC
:101FD000104A10701148405C0A4908820948403094
:101FE000008A104600780C490978884208D1002000
:101FF00009490870012189020920C006FEF7E8FCA2
:1020000010BD0000005400400004004830000020D3
:10201000DD030020320000202F0000207903002083
:102020001FB501218804FFF7F5F901210846FFF7E4
:10203000FFF901210807FFF709FA022168468181AB
:1020400081734821C17303A94F48FEF72EFC01217B
:102050000846FFF7E9FB0220009000216846017165
:102060000C21417101218171FEF76BFB052168464E
:102070000172002141720121817202A8FEF718FF4E
:1020800042480068424908404049086041480069A8
:10209000042108433F4908611FBD10B53A48FEF7C7
:1020A00085FC41080120884310BD10B50220FEF7D1
:1020B000B9FB39480078022826D138480068012148
:1020C00008433649086008460068012109060843AC
:1020D0003249086008464068022108432F49486099
:1020E0002F4C601E2F49884200D90CE0601E2E49FB
:1020F00048610321081F00F00DF800202A4988617B
:102100000720086100BF00BF00202349087001F0CC
:10211000CDFB10BD10B500281BDA1E4A1C32030788
:102120001B0F083B9B089B00D2588307DC0EFF2344
:10213000A3409A438B071B0E8407E40EA3401A4367
:10214000144B1C330407240F083CA408A4001A51A4
:1021500018E0164A03231B02D21883089B00D258AA
:102160008307DC0EFF23A3409A438B071B0E8407D3
:10217000E40EA3401A430D4B032424021B198408C8
:10218000A4001A5110BD0000000400480070004077
:10219000FDFF000000ED00E03D00002000100240C7
:1021A00080BB0000FFFFFF0000E000E000E100E076
:1021B00010B50446601E6449884201D9012010BD53
:1021C000601E624948610321081F00F086F8002064
:1021D0005E498861072008610020F0E70146002081
:1021E0005B4A126801231A43594B1A6000BF584AD0
:1021F000126802231A40002AF9D05A02544B5A603E
:102200001A46526801231B049A43514B5A601A46DE
:10221000126801231B069A434D4B1A601A46126836
:102220001F239B069A434A4B1A601A4612684B1E9C
:102230009B061A43464B1A601122464B1A60444AC9
:10224000126801231B061A43414B1A6000BF404A23
:10225000126801235B061A40002AF8D03C4A5268F3
:10226000920892003A4B5A601A46526802231A4367
:10227000374B5A6005E0364A52689205100E8007C7
:10228000800F0228F7D1704710B50420FFF7A6FF92
:102290000220FEF7D3FF00BFFEF7DCFF0828FBD1CA
:1022A00010BD10B5FFF7F0FF2B48FFF781FF10BD01
:1022B00010B50020FEF7C2FF00BFFEF7CBFF0028DD
:1022C000FBD12348006801210906884320490860A2
:1022D0007D208001FFF76CFF10BD10B5002819DAD2
:1022E0001E4A03071B0F083B9B089B00D25883071D
:1022F000DC0EFF23A3409A438B071B0E8407E40EDA
:10230000A3401A43154B0407240F083CA408A4005B
:102310001A5118E0124A03231B02D21883089B00AB
:10232000D2588307DC0EFF23A3409A438B071B0E72
:102330008407E40EA3401A43094B032424021B190B
:102340008408A4001A5110BDFFFFFF0000E000E068
:10235000001002400020024080BB00001CED00E0A5
:1023600000E100E010B505E00120FEF790FD002837
:1023700000D100E0F8E700BF10BD10B505E0022075
:10238000FEF785FD002800D100E0F8E700BF10BD92
:1023900070B504460D460120FEF7A8FF00BF61207E
:1023A000FEF741FE0028FAD00C48FEF75FFDE0B2D0
:1023B000FEF75FFDFFF7D6FF0848FEF757FD28053B
:1023C000000DFEF759FDFFF7D8FFFEF758FDFEF7A9
:1023D0005AFD70BD10B5FEF752FD10BD55550000F9
:1023E0000146182008708948704770B504460D46AC
:1023F0001821864800F067F92A462146834800F0F4
:1024000049F92946204601F08FFB70BD092070472D
:10241000F8B506460F461446069D0520C0028542C3
:1024200005D1012C03D1304601F03AF8F8BD052062
:10243000C00285420AD1102C08DC1020744B1922EE
:1024400001460090304601F05BF8EFE7224639463E
:10245000304600F07BFF00BFE8E7F8B506460F46C0
:1024600015461C46122D19D0132D18D0152D10D03D
:10247000182D18D1A078000461780902084321784A
:10248000084364490860304602F0C8FCFEF71AF8B9
:102490000FE020460699FEF735F800BF00BF304632
:1024A00002F0BCFC05E02A463946304600F04EFFFB
:1024B00000BF00BFF8BD70477047FEB505460C462B
:1024C00016460F2C39D006DC042C0BD0092C12D068
:1024D0000B2C6CD120E0132C38D0182C41D0192CA7
:1024E00065D15BE00A204CA3224629460090304685
:1024F00000F0AEFF61E001F069FB009000F0EEF843
:10250000C7B201F063FB03462246294600970190BB
:10251000304600F09DFF50E000F01AFA009000F005
:10252000DDF8C7B200F014FA0346224629460097A8
:102530000190304600F08CFF3FE0052039A3224691
:1025400029460090304600F083FF36E000200190DD
:10255000022001AB224629460090304600F078FF69
:102560002BE02C480068FF2109040840010C684654
:10257000017228480068FF2109020840010A6846E4
:1025800041722448017868468172032002AB2246DA
:1025900029460090304600F05BFF0EE0082023A3A0
:1025A000224629460090304600F052FF05E02246C0
:1025B0002946304600F0CAFE00BF00BFFEBD30B560
:1025C0000546039C002030BD704716A070471A488E
:1025D00000787047F8B504460D4616461F462A4651
:1025E0002146304600F0B2FEF8BD13490978884212
:1025F0000BD0114908700978002903D001210F4A36
:10260000117002E002210D4A11707047460000204F
:102610008A4F0008080000204D494E444D4F544950
:102620004F4E0000332E362E30000000426175649C
:1026300052617465000000006D0000203C00002025
:1026400030B50B46014600202022012409E00D464A
:10265000D5409D4205D31D469540491B25469540D2
:1026600040191546521E002DF1DC30BD70B5002416
:102670002546002801DA01244042002901DA01251B
:102680004942FFF7DDFFAC4200D04042002C00D0B1
:10269000494270BD03460B439B0703D009E008C9BC
:1026A000121F08C0042AFAD203E00B780370401C02
:1026B000491C521EF9D27047D2B201E00270401C90
:1026C000491EFBD270470022F6E710B513460A46B2
:1026D00004461946FFF7F0FF204610BD421C017862
:1026E000401C0029FBD1801A704730B504460020F9
:1026F000034600E05B1C934203D2E05CCD5C401BD0
:10270000F8D030BDF0B51FB40646002082B00546B3
:102710004024019100901BE0019922460F4630466B
:1027200000F042F8049A059B801A994110D3104694
:102730001946224600F028F8361A8F4101972246A2
:1027400001200021009F00F01FF838184D41009033
:102750002046641E0028DFDC019B00982946324693
:1027600007B0F0BD064C0125064E05E0E36807CC36
:102770002B430C3C98471034B442F7D3FDF7A4FC2C
:10278000085000082850000810B5202A04DB014634
:10279000203A9140002010BD914020239C1A03460E
:1027A000E3401943904010BD10B5202A04DB0846D1
:1027B000203AD040002110BD0B46D340D040202409
:1027C000A21A91400843194610BD30B58C18027802
:1027D000401C13071B0F01D10378401C120906D1BE
:1027E0000278401C03E005780D70401C491C5B1EFC
:1027F000F9D101E00B70491C521EFBD1A142E6D376
:10280000002030BD10B5FDF72FFF084A91698842BE
:1028100007D2081A118A884203D90548007800288F
:1028200001D0002010BD012010BD0000800000205C
:102830001901002010B50A4CE07900280CD0FDF7F2
:1028400013FFA16A884208D3401A012189028842F5
:1028500003D20020E071012010BD002010BD000057
:10286000D800002070B5114C0025616A4A78002A12
:1028700007D04989A289914203D100F0CFFC606A58
:102880004570216A487900280ED0C888A2899042F4
:102890000AD10648A67905223830FFF7FBFE02F080
:1028A00055F8206A4571A67170BD00007C010020BA
:1028B00004E0002100BF491C0329FBD3401EF8D2CD
:1028C0007047000010B503490A6B496B5043FFF78E
:1028D000B7FE10BDD800002010B5044608480849CE
:1028E000C06A496B002804DB6043FFF7A9FE0019AA
:1028F00010BD40426043FFF7A3FE201A10BD000048
:10290000D800002013B56A46127813200240094807
:1029100002706A4654784470002C03D02246801C12
:10292000FFF7B8FE0349A41C0846E2B2083801F0DC
:10293000EDF91CBD4401002001488078704700007B
:10294000D80000200148007A70470000D80000201D
:10295000074808490078020930320007000F8A70E2
:10296000092801D8303000E03730C870014870477E
:10297000180100207400002010B5074CE0790028F1
:1029800008D0FDF771FEE169884203D30020E071B1
:10299000012010BD002010BD8000002010B5184996
:1029A00018480A68184C824203D1184A1278D20794
:1029B0000DD00860E08A0A21484300F057F8124819
:1029C0001A3001F00BFC1048303001F0DCFB606B7A
:1029D00001F07BFC208B01F04FFC607901F0F6FBED
:1029E000512001F00BF97821002001F05DF97A21E6
:1029F000002001F059F9562001F000F910BD000047
:102A000068010020EC4F00087C01002080000020BD
:102A10001FB502246B461C730A21597306211970D5
:102A20000021597005229A70D97001221A715A71C9
:102A30009C71D9711872000A587219460398FFF7F1
:102A400061FF1FBD01494870704700002801002048
:102A500001490120087170478000002002498A69FD
:102A600010188861704700008000002070B504468F
:102A7000034D0120E871FDF7F7FD0019E86170BD15
:102A80008000002010B5FFF713FCFDF7EDFD0349B2
:102A90001E3088620120C87110BD0000D8000020DF
:102AA0000521C00109024018014948607047000033
:102AB000740100200FB410B503A9044B044A029816
:102AC00000F024F810BC08BC04B01847CD0300087F
:102AD0001000002030B47446641E2578641CAB429C
:102AE00000D21D46635D5B00E31830BC184702E06E
:102AF00008C8121F08C1002AFAD170477047002089
:102B000001E001C1121F002AFBD17047FFB591B04F
:102B10000F460546002606E025280AD0149A139988
:102B200090476D1C761C28780028F5D1304615B0EA
:102B3000F0BD002400940121F34A029400E0044314
:102B40006D1C2B780846203B98401042F7D128781E
:102B50002A280ED0022128780246303A092A15D8B0
:102B6000009A0A235A43303A80180C436D1C009097
:102B7000F1E701CF0090002805DA0120400304436B
:102B8000009840420090022004436D1C28782E28B3
:102B900015D10420044368786D1C2A280AD101CF7E
:102BA0006D1C02900BE002990A2251433039401803
:102BB0006D1C02902878014630390929F3D928780C
:102BC0006C2810D006DC4C281AD068280ED06A2851
:102BD00017D104E0742813D07A2812D110E0012014
:102BE000400504430CE00121090501E0032109052A
:102BF0000C436978814203D10120000524186D1C23
:102C00006D1C287803906E281ED00CDC632831D010
:102C100004DC00288AD0582811D1B2E064287BD087
:102C200069280CD178E073282DD004DC6F2870D08F
:102C3000702804D1A7E075286CD078286BD0149A3E
:102C400013999047761C62E06002400F022807D07B
:102C500003280AD0042838680AD006603F1D56E0D1
:102C60003868F11706604160F8E738680680F5E7D4
:102C70000670F3E73878694608740020487404A8A1
:102C80000390012003E0386803900020C0433F1DFB
:102C900061070FD5002101E00199491C029A0191B9
:102CA000914213DA8142F7DB019A0399895C00298A
:102CB000F2D10BE0002101E00199491C0191814210
:102CC000FADB019A0399895C0029F5D101990098F2
:102CD000139A401A00902146149B00F03BF9019989
:102CE0008019461807E0039803990078491C03915E
:102CF000149A139990470198401E0190401CF2D1FC
:102D00002146149B139A009800F014F986196D1C43
:102D100009E741E033E034E00A2000210490059106
:102D20006002410F022905D001CFC2179446032942
:102D300005D007E0FF1DFF08FF0003CF06E000B24B
:102D4000C2179446042902D140B2C1178C46002212
:102D50006146944506DA0A460021404291418C467C
:102D60002D2102E0210504D52B216A46117601218F
:102D700003E0E10701D02021F7E7019154E00A20A8
:102D80000BE0102009E010200490002104200443EF
:102D900008200591029003E008200021059104908D
:102DA0006002410F022905D001CF00229446032979
:102DB00006D006E0FF1DFF08FF0003CF8C4603E0AE
:102DC00080B2042900D1C0B20021019121072BD586
:102DD0000399702906D0049A1021059B4A401A4392
:102DE00005D00EE040216A461176012108E06146D7
:102DF000014306D030216A461176039951760221AB
:102E00000191049A0821059B4A401A430CD161465E
:102E1000014301D1610707D530216A4611760121AE
:102E200001910299491E02910399582904D037A1B2
:102E300003910FA90F910DE039A1F9E76146059BB8
:102E4000049AFFF75FFC039B8C469B5C0F9A521E13
:102E50000F92137061460143F0D10F9807A9081A29
:102E600020300390600704D50120000484430298B9
:102E700001E0012002900399884201DD401A00E040
:102E8000002041180290019809180098401A0090FB
:102E9000E00306D42146149B139A009800F05AF8D8
:102EA00086190020049008E006A9085C149A13997A
:102EB00090470498401C761C049001998842F3DBEB
:102EC000E0030CD52146149B139A009800F042F8B9
:102ED000861904E0149A302013999047761C0299C1
:102EE000481E02900029F5DC08E00F980F99007841
:102EF000491C0F91149A13999047761C0399481E08
:102F000003900029F1DCFBE609280100303132335F
:102F10003435363738396162636465660000000015
:102F200030313233343536373839414243444546FF
:102F300000000000F8B5044600251E461746880428
:102F400004D405E039462020B0476D1C641EF9D535
:102F50002846F8BDFFB50446002581B01E46C803CB
:102F600001D5302700E02027880404D505E0384645
:102F70000399B0476D1C641EF9D5284605B0F0BD15
:102F8000090710B5090FC00705D0032902D1022097
:102F900001F03DF910BD05484079002802D0FFF747
:102FA00071FD10BD01F0A0F910BD0000D800002097
:102FB000F8B507461F4C00206071087816460007D8
:102FC000000F0D46032802D005281FD111E001256E
:102FD000ED027819E06101F041F9206901F0E3F8B0
:102FE0006178E06B01F0EBF86078C0014019A061F6
:102FF00014E0207A032809D0002E07D028460622A4
:103000000D490830FFF771FB002802D001F06CF980
:1030100004E032462946384600F0E8FB532000F031
:10302000EDFD0649042000F012FE562000F0E6FDFA
:10303000F8BD0000D8000020BB0000207F01002068
:1030400070B53D4C0646207A002824D0A078401C5C
:10305000A070E078002801D02820A07060790025B9
:10306000002808D0606A091A206A301A00F06EFB46
:1030700025716571A581A07827281AD8FF201930FD
:1030800001F0FAF8A07801F0A1F80020FFF7E6FCC3
:1030900001F06AF970BD512000F0B0FD78212020C8
:1030A00000F002FE562000F0A9FD6420FFF7D6FCD8
:1030B00070BD60890101081AFF30193001F0DCF899
:1030C0002520A0706069FFF707FC861960698009F8
:1030D000FFF7C4FCA089401CA0816089301A01F070
:1030E000F4F8A07801F072F8512000F087FD782103
:1030F000002000F0D9FD7A21002000F0D5FD5620F7
:1031000000F07CFD0D4805220078D20141004118F5
:103110008901891862699142CAD2A179491CC9B250
:10312000A1711729C4D3A571002802D000F05AFE5E
:1031300070BD00F0FCFD70BDD80000201A01002019
:1031400010B50A492520887000228A7101F03EF8E6
:10315000FF20193001F090F8002001F04DF801F047
:1031600003F9002001F0CCFB10BD0000D8000020C6
:1031700010B50C480078000702D001F0B5F810BD7A
:10318000782001F079F8012001F041F805480E3867
:10319000C1698069081809210902401801F05EF828
:1031A00010BD0000E6000020F8B506460D460220DE
:1031B00001F02DF82320C001174C2818E061A178F8
:1031C000252906D16289002A03D0FA214A43101822
:1031D000E06101F043F810486946C0890880009812
:1031E00000F0E1FF2178A06B00F0E9FF20780121D9
:1031F000C001C9024018A061A07825280AD1266222
:103200006562A089112802D22079002802D001200D
:1032100020716071F8BD0000D800002070B50F4C1F
:103220000546606A0178E171408820825021484358
:10323000FFF752FB40196063606A81886182C18830
:10324000A182E289914200D9A2820089E082E079DC
:10325000034948434018208370BD00007C010020D2
:10326000E204000070B5044600781F4D4006C00F10
:10327000287128460622A11C3D30FFF70BFA0E34B8
:103280002846042221463030FFF704FA284603225C
:10329000211D1A30FFF7FEF9E079E871617A207A92
:1032A000090240182882E17AA07A0902401868824F
:1032B000617B207B0902401880B2A882E98988429C
:1032C00000D9A982E17BA07B09024018E882064868
:1032D0002146052210313830FFF7DCF9607DC00649
:1032E000C00E287270BD00007C0100207FB50AA4CA
:1032F00070CC80070194800F039602956C46207075
:10330000092060706172A272100AE072237301A931
:10331000009800F020F87FBD0500040001000000C7
:10332000000000000EB507A106C980070091800FBC
:1033300001926946087207204872029800F00BF863
:103340000EBD0000030004000317000010B50A239F
:10335000FFF7CCFF10BD10B5FFF7D4FA10BDFFB5D5
:1033600087B01E466F46109B119A0546387109209A
:10337000787105200C463872002179720420B872E9
:10338000F972601C387301207873B973F8730520E3
:10339000C0023974834213D105A8009006AB3146B0
:1033A0000998FFF70CF900280AD06946088B487382
:1033B000888AC87302A90198FFF7CDFF0BB0F0BD52
:1033C00021462846099AFFF7C1FFF7E7FFB587B006
:1033D000079817468007800F6A4610700A205070C1
:1033E0000020507106211171D071042191710521C5
:1033F0001172012151721E46D0720446134D1AE01B
:1034000020460A21484341194988B94211D3B142A3
:103410000FD80A214C43611989786A469172285A5B
:103420001073000A507301A90098FFF794FF0BB0C6
:10343000F0BD641CE4B2FEF7E9FFA042E0D83A46D2
:1034400008990798FFF782FFF1E70000304F000866
:10345000F0B589B00E4607461D461C2101A80E9CFA
:10346000FFF731F9B807800F69460870601D487092
:10347000601C0871000A4871042088710020C8711E
:10348000761C0E7201A904E02A5C0B18401C5A71CC
:10349000C0B2A042F8D30098FFF75DFF09B0F0BDBD
:1034A00030B589B0154901220A7000216C4621719E
:1034B00061710423A371E1711123237206236372E6
:1034C000A272E17223736173A1731825E573072259
:1034D000227461740F22A274E1740A2323751821E7
:1034E00061750E2580072571800F12212070617093
:1034F00001A90098FFF72FFF09B030BD6E00002032
:10350000F0B589B08446002468460E9D047144716C
:1035100004268671C471112606722E1D46728172B0
:10352000C472027344730A2001AF002105E05A5CA3
:103530003A54401C491CC0B2C9B2A942F7D3011F7A
:103540006A46117161468907890F117050703946BA
:103550000098FFF700FF09B0F0BD0000FFB589B08B
:10356000099815218507129E4902AD0F1F468E420C
:1035700021D16846FEF734FF0146684605710023F5
:1035800043710078801CC2B2122A00D91222941C06
:103590006D462C72200A68720426AE72EB72092006
:1035A00028736A73AE73EB7304A8921EFFF772F868
:1035B000241D6C713FE0614886423ED10B9807287C
:1035C0003BD15F480078002837D06B461D7117212A
:1035D000197200215972042199720021D9720921AE
:1035E000072019735873082098730020D87302209D
:1035F00018745974002199742921D9742A211975D4
:103600000A225A7500249C75D8750B251D76002555
:103610005D7626259D760E22D9761A7700225A7776
:1036200098770F24DC7708AB1A70282058709970AF
:103630001B206B46587102A96FE0FF2F00D9FF27AE
:10364000002471E020460A2148433E490A5AB2420A
:1036500068D1411848880B9A904263D3B84261D828
:10366000364A521E964223D10A226E4632720023F7
:1036700073720422B272F3720922327308227273D7
:103680000A2254432F4AA2189278B273000AF073A8
:10369000002002AA0B181418401C1B79C0B2237218
:1036A0000528F7D3487A707535710E20707133E0B4
:1036B00009266F463E7200237B720422BA72FB72A7
:1036C0003E7307227A730A2254431E4AA218927844
:1036D000BA73000AF873184602AA0B181418401C93
:1036E0001B79C0B223720528F7D33D710D20787184
:1036F000497AFF2910D0144B00200901C9180B5C2E
:103700001418401CC0B2E3721028F8D31B20787143
:10371000172038721520787311460198FFF71BFEA9
:103720000DB0F0BD641CE4B2FEF770FEA04289D873
:1037300009AB07CBFFF70AFEF2E700000328000001
:103740006E000020304F00088A4F00084B22D20044
:10375000084B821A9A420CD27D22D200064B8A1A5A
:103760009A4206D2FA224243531A044AD362516360
:1037700010637047A81D000019661800D8000020CB
:1037800010B5FEF78EFD00F0AFFD10BD7FB528210E
:10379000484308490A9D099C48616E460846B68818
:1037A000C6818A630B706E46308C0882CC634D7084
:1037B0007FBD0000D800002003490248086040682F
:1037C00000470000CC4F0008680100200649087837
:1037D000002806D0022804D001D9401E087001201C
:1037E00070470020704700007401002070B5084643
:1037F0001B4B1A4919601146FFF734FD194C1A4941
:10380000608A801F884208D2E08A091F0A388842ED
:1038100003D2207A401F0C2802D300F065FD70BD52
:10382000012000F025F8114D012128780843E321FB
:1038300008402870608A4100E08A814200D288B244
:103840000A214843FFF712F928789F210840287081
:1038500000F04AFD0020607070BD0000EC4F0008D1
:10386000680100207C0100207B0C0000800000200B
:1038700001490870704700007401002010B5094824
:10388000007900280CD0084800680078002807D18B
:10389000FEF7D0FF002801D0FFF772FF00F0B6FA64
:1038A00010BD000080000020680100207CB57F4C26
:1038B0002179032911D0012971D0022901D10321D5
:1038C0002171A081A079002801D101F0BBFAA17972
:1038D0002079014301D0002861D100206071744E2D
:1038E000744D0BE06079022808D1FEF78BFF0028A9
:1038F00004D02079002801D1FEF722F93068007841
:1039000000280ED12079002805D1FEF793FF00286A
:1039100001D0FFF735FFFFF715F8002801D1FEF7BA
:103920001EFAFEF7BAFB002873D06048401D00F075
:103930001DFC6079C10710D0694601A800F0B4FAF7
:103940005D48009901605D4A019810603268926894
:103950009047FCF789FEA06199E0810719D5694677
:1039600001A800F0A1FA00F0BFFC3068009982695C
:1039700001989047FEF7E0FF252803D14B480078D7
:10398000800703D530680078012801D1FEF7E7F9F8
:103990007DE0C10604D530684069804777E084E067
:1039A000010637D5306843490078002812D001203D
:1039B00000F0AAFA697828780902401881B23068C4
:1039C000C26801209047607941061CD5684600F026
:1039D00087FA33E0002000F097FA69782878090226
:1039E000401881B23068C268012090476079410672
:1039F00004D5684600F074FA306841E0800644D48B
:103A000045E02C4939E0800641D5684600F068FA67
:103A10002FE044E0410615D5684600F061FA3068B1
:103A2000007800280AD128780007000F052805D162
:103A30001E4A20490832002000F084FA30686A7873
:103A40000369DEE7410701D4010705D5306800218D
:103A5000C268084690471AE0810614D5684600F00F
:103A60003FFA3068017800290AD01249012000F09D
:103A70004BFA30686A78036900210098984706E09D
:103A800000220369BDE7002801D000F02DFC207959
:103A9000002800D126E76079802806D122E7207926
:103AA0000028F7D060790028F4D17CBD8000002088
:103AB000680100207F0400206C01002070010020BC
:103AC00010B5074C6079022806D1FEF79BFE00284E
:103AD00002D02079032801D0002010BD012010BDA4
:103AE0008000002070B50546FCF7BEFD04460A3490
:103AF000FCF7BAFDA042FBD3034902200871284617
:103B0000FFF7D4FE70BD00008000002010B505490D
:103B1000087000090001491D001D087001F0BCF982
:103B200010BD00008900002030B5182900D91821E7
:103B30000A4B4A1C1A70002204E0845C9D18521C37
:103B4000AC70D2B28A42F8D3002003E05A18491C64
:103B50009070C9B21929F9D330BD0000A00000202F
:103B600070B50D46124A01461078002809D0401E53
:103B70001070002656705068092806D0401C50600E
:103B800005E001205070002070BD304656600C22C8
:103B9000084B4243D41842018018074A80182A462D
:103BA0002060FEF777FD25712046A66070BD0000FD
:103BB0002001002024060020D804002010B500F0C9
:103BC00076FB0020FEF76CFF10BD000000A07047E0
:103BD0004D475F424C455F4C494200000148007828
:103BE0007047000020010020034800780A2801D017
:103BF00000207047012070472001002010B50446C6
:103C0000FDF7F7FE01215020FDF7DEFE01212046E1
:103C1000FDF7DAFEFDF7F4FE10BDF8B515460E46C9
:103C20000446FDF7E6FE01212046FDF7CDFE0746DE
:103C3000002406E00021FF20FDF7C6FE3055641C7D
:103C4000E4B2AC42F6D3FDF7DBFE3846F8BD70B502
:103C50000C460546FDF7CDFE01212846FDF7B4FED2
:103C60000021FF20FDF7B0FE2070FDF7C9FE70BDFA
:103C7000F8B516460D4604460027FDF7BAFE20208B
:103C800020430121FDF7A0FE002407E02878012150
:103C90006D1CFDF799FE641C0746E4B2B442F5D3EF
:103CA000FDF7AEFE3846F8BD70B50D460446FDF78B
:103CB000A0FE202020430121FDF786FE0121284699
:103CC000FDF782FEFDF79CFE70BD0168002902D160
:103CD0004068002801D00020704701207047000094
:103CE00000210160416002490A200870704700000D
:103CF000200100200268136812790A70016889683F
:103D00000160002900D141601846704710B50B468C
:103D1000044611461846FFF723FF002806D06168C5
:103D2000002901D0886000E02060606010BD1CB5F3
:103D30005320FFF763FF03211F20FFF7B5FF01A901
:103D40001F20FFF784FF684600790028F7D1032180
:103D50001F20FFF7A9FF01A91F20FFF778FF684682
:103D600000790028F7D101211520FFF79DFFA02140
:103D70001220FFF799FF04210A20FFF795FF002189
:103D80000A20FFF791FF88211220FFF78DFF012401
:103D900069460C702120487002221320FFF768FF4B
:103DA00069460C702020487002221320FFF760FF44
:103DB00000211520FFF778FF5620FFF71FFF1CBDDD
:103DC00008B50020694608705120FFF717FF5320FF
:103DD000FFF714FF69461F20FFF739FF694608788F
:103DE00008BD000010B55120FFF708FF5320FFF772
:103DF00005FF03211F20FFF757FF5620FFF7FEFEA8
:103E000001490120487010BD1801002038B5254C2B
:103E1000A078012838D16078002835D0012834D026
:103E2000022831D1FFF7CCFF00282DD10121152028
:103E3000FFF73AFFA0211220FFF736FF04210A20E6
:103E4000FFF732FF00210A20FFF72EFF8821122002
:103E5000FFF72AFF012569460D70212048700222D4
:103E60001320FFF705FF69460D70202048700222DD
:103E70001320FFF7FDFE00211520FFF715FF562048
:103E8000FFF7BCFE0020607038BDFFF799FF0028E7
:103E9000FAD103211F20FFF707FF5620FFF7AEFEE0
:103EA0000220F0E7180100207CB50D4604460622EA
:103EB00069461020FFF7B1FE694648790B79020484
:103EC0001802C97810184018694620608878497827
:103ED00000040902401869460978401828607CBD32
:103EE00038B50446032269461020FFF796FE68465F
:103EF0008078010468464278100209186846007804
:103F00000818206038BD00007CB50D4D0C46002817
:103F100011D0022269460620FFF77FFE684600782E
:103F2000207068464078607068460078287068465F
:103F3000407868707CBD022269460420ECE70000EE
:103F40001B01002070B513460C46002809D062788A
:103F5000901C1870002A03D0A11C6120FFF75DFEA1
:103F600070BD1C49254648780835821C1A700978AE
:103F700021700907090F60700B00FEF7ABFD070603
:103F8000090614051A060500EAE70622A11C08E046
:103F90000C28E5D10622A11C0A20FFF73EFE0622CE
:103FA00029460B20DAE70C28DAD1062229460A2016
:103FB000D4E72228D4D10622A11C0B20FFF72DFE26
:103FC000062229460A20FFF728FE162221460E3136
:103FD000C3E700001B010020FEB505460026684629
:103FE00006715F4C51200C60FFF708FE01A91F20ED
:103FF000FFF72DFE684601798029F7D159491E2027
:10400000FFF725FE78210020FFF74EFE0621084627
:10401000FFF74AFE7A210020FFF746FE5320FFF704
:10402000EDFD88211720FFF73FFE88211820FFF7BC
:104030003BFE88211920FFF737FE00211520FFF7EE
:1040400033FE02210120FFF72FFE1E211D20FFF766
:104050002BFE4548FEF72CFC284600F0F4F800A99A
:1040600008200131FFF7F3FD684640783D4F0028F6
:1040700007D112206946487038781B2801D21520D4
:104080004870C021684601702D2181700322694665
:104090000420FFF7EDFD802568460570467002227A
:1040A00069460C20FFF7E4FD1C216846017045704D
:1040B0003878192802D1CC20694608700222694656
:1040C0001420FFF7D5FD10206946087002274F70B5
:1040D0003A460A20FFF7CCFD69460F70122048705F
:1040E00002220D20FFF7C4FD012069460870072059
:1040F000487002220E20FFF7BBFD38206946087089
:104100000F2048708E7003220220FFF7B1FD71214D
:104110000920FFF7C9FD69460D7070204870212005
:1041200088704020C87004220B20FFF7A1FD5620A4
:10413000FFF764FDFF210E20FFF7B6FD06220849B8
:104140000820FFF76AFD60796D2806D1ED206071C7
:10415000062203490820FFF78BFD00F0C5F8FEBDDD
:10416000BB000020180100208813000038B5044669
:1041700069460E20FFF76BFD6846017821700E201E
:10418000FFF792FD38BD1CB501786A461170417881
:10419000517081789170C078D070042269460C20EB
:1041A000FFF766FD1CBD01B582B06946087A08704C
:1041B000487A487002220320FFF75AFD0EBD0A46D6
:1041C00010B50146A020FFF753FD10BD10B52828FB
:1041D00003D201460120FFF767FD10BD1CB5017831
:1041E0006A46117041785170807890700322694658
:1041F0000D20FFF73DFD1CBD1CB5FF216A46117067
:104200005070022269460E20FFF732FD1CBD10B52A
:1042100004280BD001280BD002280ED003280ED082
:1042200005280ED0062807D1042102E0022100E073
:1042300009210220FFF738FD10BD0C21F9E701210B
:10424000F7E70321F5E708B502216A4611705070BF
:104250000A4669460F20FFF70BFD08BD1CB56A46EC
:104260001070010A5170000C9070032269460720FB
:10427000FFF7FEFC1CBD00001CB56A461070010A69
:104280005170002191700549884201D90120907038
:10429000032269461120FFF7EBFC1CBDFFFF000065
:1042A0000A4610B50146A020FFF7E2FC10BD01B59B
:1042B00082B06946087A0222C006C00E0870487AA9
:1042C00048700520FFF7D4FC0EBD1CB500216A46DE
:1042D00011705070010A9170000CD0700422694670
:1042E0000F20FFF7C5FC1CBD1CB5022069460870F5
:1042F000FF2048708870C87004220F20FFF7B8FCB8
:104300001CBD000008B517A0006800905120FFF701
:1043100075FC78210020FFF7C7FC5320FFF76EFCE7
:1043200018211D20FFF7C0FC8E211720FFF7BCFCD1
:104330008C211820FFF7B8FC8C211920FFF7B4FC62
:1043400001211520FFF7B0FC022269461320FFF778
:104350008FFCA0211E20FFF7A7FC5620FFF74EFC84
:1043600008BD00008102000010B501210F20FFF7F9
:104370009BFC10BD38B5054600230C461046009343
:10438000FFF7A3FC002802D02B70237038BD6946CC
:104390001046FFF7AFFC0146684602782846FEF754
:1043A00079F968460078207002480178491C01704C
:1043B00038BD00002001002010B505480349816088
:1043C000002141701430FFF78BFC10BDE84F00084E
:1043D000280100207047000000B587B0182209A10D
:1043E0006846FEF757F90D48032101701821417006
:1043F000801E4088694608830698FEF783FA07B056
:1044000000BD0000101000280001002C0118200041
:104410000300FFFFFFFFFFFFFFFFFFFFCE000020B5
:104420003EB500228C070E490092A40F01920C7039
:1044300006244C7002236C46237062700179A170CF
:104440004079E0700D2020711A206071044869469F
:10445000801E408820810298FEF754FA3EBD00007D
:10446000CE0000201FB508A007C86B4607C3094847
:104470000321017009214170801E408869468881AE
:104480000398FEF73FFA1FBD09000000000000007E
:1044900000000000CE0000203EB500228C070D4930
:1044A0000092A40F01920C7006244C7002236C46FB
:1044B000237062700179A1704079E070052020714D
:1044C000607104486946801E408820810298FEF78A
:1044D00019FA3EBDCE00002008B589070748890FAC
:1044E000017000214170801E408869460880009854
:1044F000FFF764FB0420FFF7BBF908BDCE000020E6
:104500001CB509A109680091084903220A7002221A
:104510004A70694648700548801E40888880019826
:10452000FEF7F0F91CBD000007000000CE000020DF
:104530000EB509A005C8009089070948890F0192A6
:10454000017006214170801E4088694608810298EA
:10455000FEF7D8F90EBD00000C079C0517200000DF
:10456000CE000020FEB5154C01A92246083A20468F
:10457000FFF700FF6846007901262546002801D193
:104580002E70687021780D4F132001401C3F787801
:104590000423C24352081A4040071143C00FC00011
:1045A00001436A46117060785070A11C009800F0B9
:1045B0005DFC2E7000207870FEBD000044010020DC
:1045C000FEB50D46002102911D2D00D91D25014685
:1045D0002A469B48FEF75EF89A48994C0570207869
:1045E000984A8107890F9070012914D0032917D0A8
:1045F00002290FD1637921791B02A579C9180629EF
:104600004BD0042950D0052904D1132D02D000200D
:10461000FEF7FEF9FEBD022DFCD3FDF7D5FFFEBD72
:10462000A1780B00FEF756FA120B0F1E2335353515
:104630000A283535352D0A35320A0A35EFE7E01CF0
:1046400000F012F9FEBD01467D48FFF7C3FE617A16
:10465000207A090240186946088102A9E01C00F08E
:1046600035F9FEBD01467648FFF736FFFEBD01462F
:104670007348FFF7D5FEFEBD01467148FFF7F2FE15
:10468000FEBD01466E48FFF753FFFEBDFFF7A4FED7
:10469000FEBD0846FFF734FFFEBD012DFCD10146EB
:1046A0006748FFF7F9FEFEBD66490C31102D72D048
:1046B0000ADCAE1E3300FEF70DFA0B1D152215366F
:1046C00015541589159415005D4B0933182D7BD0B1
:1046D00004DC122D79D0162D04D192E01E2DE2D0EB
:1046E000522D72D06906DED4062300222946FEF739
:1046F000FDFDFEBD00222946FEF714FEFEBD237A15
:10470000E2791B02D21892B20A80637AA47A240258
:104710001B199BB24B809A4201D90123E6E7294637
:10472000FEF754FEFEBD237AE2791B02D21892B244
:104730000A80A67A637A36029B199BB24B809A4212
:10474000EBD8267BE17A36028919667BA47B89B295
:1047500024023419A4B2009101942946FEF7FFFD0A
:10476000FEBD237AE2791B02D21892B20A80A67AA1
:10477000637A36029B199BB24B80E67A247B240233
:104780003419A4B28C809A42C7D829460094FEF707
:10479000E5FEFEBDFFE7237AE2791B02D21892B252
:1047A0000A80A67A637A36029B199BB24B80E67A1E
:1047B000247B24023419A4B28C809A42ADD82946B5
:1047C0000094FDF725FEE4E724E027E0237AE17971
:1047D0001B02C91889B2918002462846FDF76DFE7A
:1047E000D7E7237AE1791B02C91889B29180A37AAD
:1047F000627A1B02D21893B202462846FDF7EAFEFF
:10480000C7E7217AE0790902401890800C4800F04F
:10481000E2FABEE70A4800F0A1FABAE7E178A67822
:104820000902C91E7118CEB2E179247A240209194D
:1048300089B291800A4629460096FDF70EFEA8E748
:104840009C0600202801002013B56A46044812780F
:1048500002706A46527842700248FDF71BFF1CBD89
:10486000CC000020B204002030B5164B0122596A5A
:104870004A7002780A7084784278240212194A80B9
:104880000479C2782402121992B28A808579447917
:104890002D026419CC80057AC4792D0264190C812B
:1048A000447A807A0002201880B200244881062AC7
:1048B00000D24C709A89801A034A904200DB4C70F7
:1048C00030BD00007C010020FF7F000010B50A4CC5
:1048D0000346206A0988C18005221946FDF7DAFEE1
:1048E000206A01214171C188A289891A034A914233
:1048F00001DB0021417110BD7C010020FF7F000021
:1049000010B5FEF7B3F810BDF8B50C460746002603
:1049100014E0142C01D9142500E02546FFF75EF9B8
:1049200003280FD3084800950288BB191B210220D9
:1049300000F025FA7019C6B2601BC4B2002C01D079
:10494000002FE6D13046F8BD6A000020F0B50C4BD0
:1049500000201C46987138340A4A58720125C10853
:104960004607615C760F2F46B740394203D0597A2B
:104970005054491C5972401CC0B22528EFD3F0BDD9
:104980007C010020C606002010B5C00706D10448EF
:10499000FB22017811400170FFF7A6FC10BD00005A
:1049A00080000020F8B5064633480C46C08A0A212C
:1049B00015464843FEF75AF8304F0421387808432B
:1049C000E72108403870FDF769F9002C03D06078C2
:1049D000002818D01BE04120400105213018264C4A
:1049E000C9014018E062FFF739FC1B2D00D91B25D7
:1049F000E801311A05200002081AA0623878102157
:104A00000843387035E03878082108433870812031
:104A1000000119493018C862FFF720FCE8010121A4
:104A2000301A8902411A144881622078FEF70AF888
:104A30003878227841061207C90FD20F914218D157
:104A40000D4C012121704021484038700C4800680D
:104A500000688047FDF72EF9002060705320FFF7B3
:104A6000CDF8E11C0420FFF7F2F85620FFF7C6F856
:104A7000F8BDFDF71FF9F8BD7C0100208000002083
:104A800030010020F8B50F460646FEF79FFE8C4D1C
:104A90000028287826D08B4CC10737D00221084344
:104AA0002870208A502148432830FDF715FF8019CF
:104AB0006063FFF74BFF206A00264671606A46700C
:104AC000A6812670FFF778FCA671E0797E494843FD
:104AD000401820830120FDF788FDFDF733FF0228F1
:104AE00010D0B0E0FD21084028700020FDF7B6FF8F
:104AF000FDF728FF022802D18020FFF707F800F019
:104B0000A1F9F8BD8220FFF701F89CE02078002889
:104B10000FD06E490120FFF7F7F96A466B49012073
:104B2000FFF710FA684601786848FFF749FD002052
:104B30002070287840073DD5A06A0121381A09065F
:104B400040180002000AFDF7BDFE371A287800075A
:104B50000ED5A08A00280BD0FFF746F8002807D012
:104B6000606A4078002803D1206A4079002809D083
:104B7000608A502148435038FDF7AEFEC01960638B
:104B800060894CE0608AA18A41430818502148435B
:104B90005038FDF7A1FEC0196063A189A08A0918E9
:104BA000A181217A48432521FDF74AFDA079081803
:104BB000A071E5E7608A082801D20121A17044496B
:104BC0003D280F6807D2502201465143C200801889
:104BD0000009081A02E0502148431938FDF77CFE0D
:104BE000C0196063608A092806D2617848430621AB
:104BF00048433549FA3107E0112807D26178484324
:104C0000062148437D210901401808E03D2805D2CE
:104C100061784843062148432E49F5E72E48208312
:104C2000606B0A36B04200D26663A078002804D1D7
:104C30002A49606B0988401A6063A089401CA081E2
:104C4000606BFDF70FFEA079217A4018C0B22521D4
:104C5000FDF7F6FC1B4BA171CA0838339A5C4B0771
:104C600008465B0F012199400A4205D1617AFDF7A0
:104C7000E7FC16482538405C6071FDF763FE0228AA
:104C800005D12878800702D500F0DCF801E0FDF7B7
:104C900085FE2878C10704D0400840002870002015
:104CA0000BE0A078002805D00020FDF7D7FE0020FB
:104CB000A070F8BD608A81080818FDF7CFFEF8BD26
:104CC000800000207C010020E2040000EB060020B0
:104CD00070010020C4090000204E0000E200002006
:104CE00010B506480078C00604D500210846FFF735
:104CF0004BFE10BDFFF7F8FA10BD00008000002049
:104D000070B50D46FDF738FE002809D1114C6078CA
:104D1000322805D8618A4143E08AC000814205D922
:104D20000020FEF7A5FDFFF7DFFA70BD0420FFF7B6
:104D30006EFAC3204001A1782818002904D1064941
:104D4000FA22098851430818FFF788FA6078401C56
:104D5000607070BD7C010020E200002008B50221D7
:104D60006A461170052151700121817019218171EC
:104D7000811C0098FEF7EFFAFDF79EFB08BDFFB51A
:104D80008BB0149C1D461746E61C242101A8FDF794
:104D90009AFC0B981321084069460870E01D487082
:104DA0000E71300A4871042088710020C8710C9877
:104DB00008724F72380A8872002001A904E02A5C48
:104DC0000B18401CDA71C0B2A042F8D30098FEF76D
:104DD000C2FA0FB0F0BDF8B50446827AC178007A05
:104DE000E57900020543A07809020843401F87B215
:104DF000667A10020643022069460870607848709F
:104E00001720A071A11C0098FEF7A5FA2146334691
:104E10003A460B312846FDF74EFBF8BD0EB507A10B
:104E200006C980070091800F01926946087205202B
:104E300048720298FEF78FFA0EBD000001000400D0
:104E40001300000010B500F027F80748007880072D
:104E500007D40548401C0078800702D40020FDF7E5
:104E6000C4FBFEF7A9FC10BD8000002073B50D4601
:104E70000098FFF71CFA68464478002C03D02146BE
:104E80002846FFF70DFA2046FDF70AFE294600984E
:104E9000FFF7DAFC7CBD000030B585B003A8FDF754
:104EA0009FFA6946097B182902D918216A461173AD
:104EB00069460A7B1C4B511C1970002104E0445CBC
:104EC0005D18491CAC70C9B29142F8D3002003E0D0
:104ED0009918521C8870D2B2192AF9D31249124A71
:104EE0000C46203CA5780E3A03231B20002D01D050
:104EF0000E4A2B46E578002D02D00C4928461F317A
:104F00000290094801912038C0896D4628800648E2
:104F10002038417A2974807A6874A0890499FEF750
:104F200035FC05B030BD0000A00000204104002089
:104F300003280300020400002AFF032808000209D6
:104F400000292AFF03280A00020B00262AFF032853
:104F50000E00020F00282AFF032811001012000083
:104F60000001022913000A000000000003281400B9
:104F70000C1500000002032817000A1800000003A7
:104F8000012919000200000000009ECADC240EE581
:104F9000A9E093F3A3B50100406E9ECADC240EE5A0
:104FA000A9E093F3A3B50300406E9ECADC240EE58E
:104FB000A9E093F3A3B50200406E9ECADC240EE57F
:104FC000A9E093F3A3B50400406E000000000000C8
:104FD00041310008A9310008812F0008B12F0008D5
:104FE00071310008413000086545000801000000EB
:104FF00000000000014D000889490008A54900088B
:10500000E14C0008854A00082850000800000020F4
:10501000C8010000CA270008A0500008C8010020ED
:1050200048090000FE2A000891031780259D01020F
:10503000030401020304060708090212320B1B4D88
:10504000696E644D6F74696F6E5212256401017947
:10505000CB465620202E332E352E39DD800900A078
:105060000084210400020106022B09420136A60435
:105070000020C232206225420102201033813133E8
:10508000580A04126FE80902240A0242FF33DC05C1
:105090000212040925C0010020BA06002000000009
:04000005080000C12E
:00000001FF
