:020000040800F2
:10000000800700209D010008C3010008C501000809
:10001000C7010008C9010008CB010008000000006A
:10002000000000000000000000000000CD010008FA
:10003000CF01000800000000D10100084B050008B6
:10004000D5010008D501000800000000D501000816
:10005000D5010008E71B0008D5010008D5010008FC
:1000600000000000D5010008D5010008D5010008F6
:10007000D5010008D5010008D5010008D501000808
:10008000D50100080000000000000000D5010008B4
:1000900000000000D5010008D50100089D1A0008E5
:1000A00000000000D5010008D5010008D5010008B6
:1000B000590400080348854602F08CF800480047C0
:1000C000030200088007002000203149096801224E
:1000D00011432F4A116000BF2D49096802221140C7
:1000E0000029F9D02A490968D2049143284A1160AD
:1000F0001146096804229143254A11601115516087
:100100001121244A116022494968214A516011464F
:10011000496851601146496851601146496889082B
:10012000890051601146496802221143184A516002
:1001300005E0174949688905080E8007800F0228E5
:10014000F7D1704710B5FFF7BFFF10BD10B51048CD
:100150000068012108430E490860084640680E49BE
:1001600008400B4948600846006809210904884393
:10017000074908600846006801218904884304494A
:1001800008609F2000048860FFF7DCFF10BD0000BE
:1001900000100240002002400000FFF00E4880F3F3
:1001A00008880E480168090E0D4A914205D10D4894
:1001B0000D4901600D480E4901600E4880470E4808
:1001C0000047FEE7FEE7FEE7FEE7FEE7FEE7FEE7A5
:1001D000FEE7FEE7FEE700008007002004000000C5
:1001E0001F00000018100240010000000000014044
:1001F000000000004D010008B50000082848006814
:1002000070471FB50125ED05264C27A00068039017
:1002100000F0A4F900F06DF80621244801F03AFA44
:1002200001F09CFC00BF28466D1E0028FBD102F0A7
:1002300047F91B49432003F0D7FB194800680078B1
:10024000174909684978164A126892780092019114
:10025000029013480068C37811480068027910487A
:100260000068417912A002F05DF920780B2810DDBA
:1002700020781B280DDA207869464873532003F054
:10028000C5F9022203A9042003F0FAF9562003F06D
:10029000BDF9FF20413003F02DF900BFFEE700005B
:1002A0000000002004F8FF1FC012000000380040CA
:1002B0000D0A4D41433A253032782D253032782DC4
:1002C000253032782D253032782D253032782D2585
:1002D0003032780D0A00000000BF704700BF8C4A22
:1002E0009268D207D20F002AF9D0C2B2884B1A60A6
:1002F000704700B587B00121480400F0DFFE0121FE
:10030000480400F0BFFE1C216846017103214171C1
:100310000121817101A800F01DFD012202210920A7
:10032000C00600F0D4FA012203210920C00600F023
:10033000CEFA784800680290302168468181002119
:10034000C181018281821821418202A9704801F095
:10035000D6F8012202216E4801F024F90022012181
:100360006B4801F01FF90121694801F00FF90421E0
:1003700068460183032181761821C17606A90920E8
:10038000C00600F0FAF90821684601830421C1760D
:1003900006A90920C00600F0F0F9032206215E48F4
:1003A00000F095FA032207215B4800F090FA8021C3
:1003B00068460183022181761021C17606A956483C
:1003C00000F0DBF940216846018302218176282173
:1003D000C17606A9504800F0D0F980214E4800F0BF
:1003E00061FA07B000BD1FB50024684600F001FEA9
:1003F0000021474801F0CAF8029C4648016820469F
:1004000001F056FE00094249086242480168204650
:1004100001F04EFE0007000F3D49486201213F48B0
:1004200001F0B4F81FBD30B502463D4B1B785B1898
:10043000642B10DA002007E0135C394C2478241870
:10044000384D2B55431CD8B28842F5DB344B1B7812
:100450005B18334C237030BD10B502212C4801F0DD
:10046000C7F800281CD00221294801F0CBF8284801
:1004700001F0AFF82C492D4A128888542C480068A6
:100480007D21C90040182B49086028480088401C7D
:100490002649088008460088642801DB002008807F
:1004A00001211B4801F0A4F800282FD00121184891
:1004B00001F0A8F8174801681F4801F0F9FD1C4930
:1004C000096840181D4908601D48007814490978DA
:1004D000884216DA1A4802780078401C184B1870C7
:1004E0001048815C0A4801F071F8154800780C4901
:1004F000097888420AD1002009490870104908701B
:1005000004E000220121024801F04CF810BD000077
:10051000004400400800002000040048003801406A
:1005200029000020EC010020500200202C000020B7
:10053000100000203C000020204E0000340000206D
:100540002A0000202B480068704710B52948006831
:10055000401C2849086002F099FE10BD10B5264CD9
:10056000601E2649884200D90CE0601E244948617B
:100570000321081F00F007F80020214988610720A7
:10058000086100BF10BD10B5002819DA1D4A030725
:100590001B0F083B9B089B00D2588307DC0EFF23F0
:1005A000A3409A438B071B0E8407E40EA3401A4313
:1005B000144B0407240F083CA408A4001A5118E0A7
:1005C000114A03231B02D21883089B00D2588307C9
:1005D000DC0EFF23A3409A438B071B0E8407E40E17
:1005E000A3401A43084B032424021B198408A400C7
:1005F0001A5110BD1000002080BB0000FFFFFF005B
:1006000000E000E01CED00E000E100E000203E49D9
:10061000086048608860C8603C48486170470021B5
:1006200039498279002A35D00A46126803689A430C
:100630000B461A600A46526803689A430B465A6092
:10064000027951180A6803681A430A602E4A9268B0
:1006500003689A432C4B9A601A46D26803689A43FF
:10066000294BDA604279102A0CD11A469268036845
:100670001A43254B9A601A46D26803681A43224BE4
:10068000DA600EE02049427951180A6803681A437B
:100690000A6006E01C49027951180A6803689A4307
:1006A0000A6070470021016001710C214171002135
:1006B00081717047144909690143134A11617047F8
:1006C00001460020104A52690A40002A01D0012048
:1006D00000E0002070470C49486170470146002047
:1006E0000022094B1B680B401A46074B5B690B4005
:1006F000002B03D0002A01D0012000E00020704729
:10070000014948617047000000040140FFFF1F00DD
:1007100010B504460920C006844209D101214804CD
:1007200000F0B0FC00210120400400F0ABFC23E00D
:100730007848844208D10121000200F0A3FC002186
:10074000200200F09FFC17E07348844208D1012189
:10075000000200F097FC0021200200F093FC0BE067
:100760006E48844208D10121080500F08BFC00216D
:100770000120000500F086FC10BDFCB502460025F6
:10078000002601960020002300240096CE7835072D
:100790002D0FCE7810273E40002E01D08E783543A5
:1007A0000E78002E27D01468002021E00126864014
:1007B00033460E881E400196019E9E4217D183004B
:1007C0000F269E4000962746009EB7433C462E4685
:1007D0009E403443CE78282E03D1012686405661B0
:1007E00005E0CE78482E02D1012686401661401CD5
:1007F0000828DBD314600E88FF2E2CDD54680020FF
:1008000026E0064608360127B7403B460E881E40C4
:100810000196019E9E421AD183000F269E400096AB
:100820002746009EB7433C462E469E403443CE7832
:10083000282E04D1064608360127B7405761CE78E6
:10084000482E04D1064608360127B7401761401CE0
:100850000828D6D35460FCBD0021C9430180022181
:1008600081700421C17070470246002093680B40DC
:10087000002B01D0012000E000207047014688686D
:1008800080B2704702460020D3680B40002B01D095
:10089000012000E0002070470146C86880B2704720
:1008A0000161704741617047002A01D0016100E099
:1008B00041617047C16070470122120413460B4327
:1008C0001A46826181618261826982697047F0B5EE
:1008D000002300244D07EE0E1546B5402B46CD10E3
:1008E000002D0BD1056A4E07F70E0F26BE40B5430B
:1008F0000562056A1D432C4604620AE0456A4E07FC
:10090000F70E0F26BE40B5434562456A1D432C468F
:100910004462F0BD0004004800080048000C004894
:1009200010B50446FE48844208D10121480500F074
:10093000E1FB00210120400500F0DCFB10BDF0B51B
:1009400087B004460E460025F64806900027002092
:1009500005906C20005BF44908406C21085301A805
:1009600000F047FB03980690F048069901F0A0FBC1
:100970000590EE48B16801F09BFB074600BFEC49CB
:10098000B068884210D83846059901F091FBC00341
:10099000050C2583218B059A5143781A114601F0E5
:1009A00087FB85B2A5820FE03846059901F080FBF0
:1009B000C003050C2584218C059A5143781A1146F1
:1009C00001F076FB85B2A5832588DA48054070885A
:1009D000FF21613108433188084305462580258E73
:1009E0000320800305402586002020870120A08762
:1009F00007B0F0BD01210180A82181800221418042
:100A0000CB4981607047002906D06C22125A01231D
:100A10001A436C231A5205E06C22125AC24B1A4038
:100A20006C231A527047002915D0C34A1288022A33
:100A300006D18822125802231A4388231A5011E043
:100A4000BD4A1288012A0DD18822125801231A4367
:100A500088231A5006E088221258B34B9B1E1A4076
:100A600088231A507047002904D0028820231A4393
:100A7000028004E00288AC4B1F3B1A4002807047A2
:100A800030B50B460021AD4A00BF6C24245A022524
:100A90002C436C252C5205E01446551EAAB2002C9E
:100AA00000D105E06C24245A02252C40002CF3D1FF
:100AB00000BF5424245AE1B230BD0A460021818887
:100AC000FF231B02194053101943818070470029EE
:100AD00005D0828801231B031A43828003E08288A9
:100AE000974B1A4082807047002905D082880123E5
:100AF000DB021A43828003E08288924B1A40828094
:100B00007047042901D18B010382002A03D0038E90
:100B10000B43038602E0038E8B43038670470182FA
:100B20007047012252020A430282704701460320A5
:100B30000002088200207047FF21013101827047C6
:100B400001460020804A1070088AC0B270474B10DE
:100B5000838070470246505A7047014600200022A9
:100B60008A8E7A4B13401846704770B502460023B0
:100B700000240020042908D1734D2D78002D04D1C4
:100B80008D0115820125704E3570948E25460D40DD
:100B90002B468B4201D1012000E0002070BD1CB526
:100BA000024600200023019300930123DB030B4046
:100BB000002B07D0136F0B40002B01D0012013E056
:100BC000002011E0042908D15F4B1B78002B04D1D1
:100BD0008B01138201235C4C2370938E0B40002BFE
:100BE00001D0012000E000201CBDCA07D20F002A5E
:100BF00001D04422125A02220A40022A01D148227C
:100C0000125A08220A40082A01D14C22125A2022E4
:100C10000A40202A01D15022125A40220A40402A7A
:100C200001D15422125A80220A40802A01D158222E
:100C3000125AFF2201320A40FF2301339A4201D1A6
:100C40005C22125A012252020A4001235B029A429C
:100C500001D16022125A012292020A4001239B0212
:100C60009A4201D16422125A0122D2020A4001237F
:100C7000DB029A4201D16822125A704702460020D4
:100C8000938E0B40002B01D0012000E00020704724
:100C9000CA07D20F002A01D04422125A02220A4067
:100CA000022A01D14822125A08220A40082A01D1F8
:100CB0004C22125A20220A40202A01D15022125AD4
:100CC00040220A40402A01D15422125A80220A406E
:100CD000802A01D15822125AFF2201320A40FF23F2
:100CE00001339A4201D15C22125A012252020A4077
:100CF00001235B029A4201D16022125A0122920220
:100D00000A4001239B029A4201D16422125A012215
:100D1000D2020A400123DB029A421AD1682217E06C
:100D20000054004000127A00FEFF000000CA9A3B07
:100D3000A08601008AFE000016000020B80B00000B
:100D4000FFEF0000FFF7000014000020FF3F7900D4
:100D5000125A704700218278002A27D0274A03239D
:100D60001B02D21803789B109B00D158027892077F
:100D7000D30EFF229A400B469343194642789207BE
:100D8000120E03789B07DB0E9A4011431B4A032384
:100D90001B02D21803789B109B00D1500278D30617
:100DA000DB0E01229A40154B1A6007E00278D30649
:100DB000DB0E01229A40114B80331A607047704756
:100DC000002905D00E4A126902430D4B1A6104E056
:100DD0000B4A126982430A4B1A617047042806D1F4
:100DE0000849096904221143064A116105E00549D1
:100DF000096904229143034A1161704700E100E050
:100E000000ED00E000E000E0DE480068012108435A
:100E1000DC49086008464068DB490840D949486019
:100E200008460068D9490840D64908600846006865
:100E3000012189048843D3490860002088607047F5
:100E4000D0490968012212049143CE4A116011462B
:100E50000968012292049143CA4A116001210904E0
:100E6000411A04D003221204891A10D107E0C5499F
:100E70000968012212041143C24A116008E0C14905
:100E80000968052212041143BE4A116000E000BF48
:100E900000BF704710B501460022002300204A1110
:100EA000012A02D1B74C236801E0B64C636ACA0636
:100EB000D20E012494401C40002C01D0012000E0FF
:100EC000002010BD38B5002000900024002500BF90
:100ED0003120FFF7DFFF05460098401C0090002DF1
:100EE00004D10521090200988842F1D13120FFF791
:100EF000D1FF002801D0012400E00024204638BDA5
:100F0000014600209F4A1068F82302469A43104683
:100F1000CA0010439B4A10607047012806D19949C6
:100F2000096801221143974A116005E09549096853
:100F300049084900934A1160704701460020914AD0
:100F400050688008800002460A4310468D4A50606F
:100F500070478C4840680C210840704701460020CB
:100F6000884A5068F02302469A43104602460A43D4
:100F70001046844A5060704701460020814A5068FC
:100F800007231B0202469A43104602460A431046B4
:100F90007C4A50607047014600207A4A5068072317
:100FA000DB0202469A431046CA001043754A50605D
:100FB0007047002906D0734A926803021A43714BA6
:100FC0009A6005E06F4A926803029A436D4B9A60FB
:100FD0007047002806D06B49496A01221143694ACB
:100FE000516205E06749496A49084900654A51620A
:100FF000704710B500210022624B5B680C2423402F
:101000001946002904D0042905D0082913D105E088
:101010005F4B036012E05E4B03600FE0594B1968B1
:1010200001231B050B40002B02D15A4B036001E04A
:10103000594B036002E0564B036000BF00BF514BA9
:101040005B68F024234019460909544B5A5C036835
:10105000D34043604B4B5B6807242402234019466E
:10106000090A4E4B5A5C4368D3408360454B5B682A
:10107000E40023401946C90A484B5A5C4368D340F0
:10108000C36010BD002905D03E4A526902433D4B62
:101090005A6104E03B4A526982433A4B5A617047B5
:1010A000002905D0374A92690243364B9A6104E021
:1010B000344A92698243334B9A617047002905D0C4
:1010C000304AD26902432F4BDA6104E02D4AD269DB
:1010D00082432C4BDA617047002905D0294AD26837
:1010E0000243284BDA6004E0264AD2688243254B4B
:1010F000DA607047002905D0224A12690243214B69
:101100001A6104E01F4A126982431E4B1A6170473C
:10111000012806D11B490968C2041143194A11600C
:1011200006E0184909680122D2049143154A11606A
:10113000704714494968072212069143114A5160C9
:1011400011464968020611430E4A516070470D4826
:10115000406A0121090608430A494862704701466E
:101160000020084A92680A40002A01D0012000E0CD
:10117000002070470349896802041143014A9160C5
:1011800070470000001002400000FFF8FFFFF6FE6D
:1011900000127A00006CDC0200A24A041800002051
:1011A00010B504469E48844207D101210014FFF780
:1011B00093FF00212014FFF78FFF9A48844207D144
:1011C00001218014FFF788FF0021A014FFF784FF9E
:1011D00010BD10B50022028B0F231B031A404B8851
:1011E0004C8923430C8823431A430283828B8E4B02
:1011F0001A40CB89CC8823430C8923431A431823F4
:1012000013438383028C00228B891A4302848B88C8
:10121000082B07D0838B042423438383838B0824E8
:10122000234383838B88838510BD00210180418007
:10123000082181800021C18001210181002141819B
:10124000022181810021C1817047002904D0028BD5
:1012500001231A43028304E0028B734B3E331A408E
:101260000283704710B5002A07D0038B0224234362
:101270000383038A0B43038207E0038A8B430382C1
:10128000038B694C3D342340038310BD002A03D0F7
:10129000038B0B43038302E0038B8B430383704771
:1012A000002A03D0038B0B43038302E0038B8B43A1
:1012B000038370470022838DDAB2002A00D12022F6
:1012C0000160082A01DD0B0A0360102A01DD0B0C06
:1012D0000360182A01DD0B0E0360704701460022EF
:1012E00000208B8DDAB2002A00D120224868082A1B
:1012F00002DD4B681B021843102A02DD4B681B04F9
:101300001843182A02DD4B681B061843704710B5B6
:10131000002A03D0038D0B40038503E0038DCC43EB
:101320002343038510BD404A3E32914204D0028BD4
:1013300001231A43028304E0028B3B4B3E331A40E5
:1013400002837047028B394B1A400283028B0A4397
:1013500002837047082903D1028B08231A430283B2
:10136000102903D1028B10231A4302832E4A3732ED
:10137000914203D1028B0B461A4002832A4A2F3234
:10138000914203D1028B0B461A400283704730B55D
:1013900002460B460024908D082808D11089184079
:1013A000002801D0012400E00024204630BD908DAB
:1013B000002804DD908D082801DC012110E0908DCB
:1013C000102801DC02210BE0908D182801DC03219C
:1013D00006E0908D1F2802DD908D002800D10421A9
:1013E00010890F252D0228400012884201DB0120C0
:1013F000DCE70020DAE70246002093890B40002B4F
:1014000001D0012000E000207047828A0A438282D6
:10141000704781847047828B0A4382837047000043
:101420000038004000300140C0FF0000FFFC000019
:10143000244800688007800F2249086000208860E7
:1014400000212048C16001614161704701460020D0
:101450001C4A10688008800002460A431046194A58
:1014600010607047002905D0164A12680243154BD8
:101470001A6004E0134A12688243124B1A607047E4
:1014800030B500228B071C0F0F23A3401A460D4BCB
:1014900008338C10A4001B5993430A4C08348D1058
:1014A000AD00635123468C10A4001B598C07250FF7
:1014B0000446AC402343034C08348D10AD00635107
:1014C00030BD00000000014010B504464E48844283
:1014D00008D101214804FFF70DFE0021012040043E
:1014E000FFF708FE4948844208D101218803FFF72D
:1014F000F3FD002101208003FFF7EEFD10BDF0B5E4
:1015000087B004460D46002600200690059000276F
:101510002746E669CF21304688430646A888E988F1
:101520000843298908430643E661A66976097601DE
:10153000A889698908430643A66101A8FFF759FDF8
:101540003148874202D10398069001E00498069042
:101550002968069800F0ACFD06092968069800F095
:10156000A7FD0007000F059026620598606207B08E
:10157000F0BD4B21C9010160302181800021C18073
:10158000018118214181002181817047002904D007
:10159000826901231A43826103E082691C4B1A406D
:1015A00082617047002A03D003690B43036102E0A4
:1015B00003698B4303617047002A03D083690B439F
:1015C000836102E083698B4383617047CAB2026022
:1015D000704701464868C0B27047024600209368D1
:1015E0000B40002B01D0012000E000207047704725
:1015F00002460020D3680B40002B01D0012000E000
:1016000000207047416170470044004000380140AD
:10161000FEFF000002465A48026000BF5848008999
:10162000C007C00F0028F9D000BF55480089022329
:1016300018400028F9D052484068C0B2704710B531
:101640000121C9034F48FFF72DF910BD10B5012145
:10165000C9034C48FFF724F910BD10B50446082112
:101660002046FFF777FE10BD10B5044646492046D8
:10167000FFF770FE10BD10B5044610212046FFF79D
:1016800069FE10BD10B504463F4908392046FFF7F2
:1016900061FE10BD30B585B004460D463848844221
:1016A0004ED101210014FFF709FDFFF7CFFF012103
:1016B00003204004FFF7E6FC04220C213148FFF729
:1016C00006F904220D212F48FFF701F903220E210C
:1016D0002C48FFF7FCF801220F212A48FFF7F7F802
:1016E000E11368460180032181701021C1706946B1
:1016F0002448FFF742F8A1142248FFF7D1F821143B
:1017000068460180032181701821C17069461D4817
:10171000FFF733F8611468460180032181701821B6
:10172000C17069461748FFF728F8A1146846018080
:10173000032181704821C17069461248FFF71DF8E6
:101740000421684681800021C18008210181002197
:101750004181012181810021C1810582418201A94C
:101760002046FFF736FD01212046FFF76EFD20469B
:10177000FFF773FF2046FFF77EFF05B030BD000086
:101780000038004000040048F7FF000010B588480A
:10179000007800282ED08748006887490968884269
:1017A00028D28648006884490968884222D2804845
:1017B0000078012807D182480069FB210840804950
:1017C000086120BF16E001217E48FFF711FF0028C5
:1017D00010D000F0A4FA7A4800690421084378493F
:1017E000086130BF784800680121084376490860E5
:1017F00000F060FA10BD10B501F06AFE002800D1BB
:1018000010BD6B480078002829D06A4800686A49F2
:101810000968884223D26948006867490968884294
:101820001DD263480078012809D1684908706448CE
:101830000069FB2108406249086120BF0FE00220D7
:10184000624908705E480069042108435C490861E8
:1018500030BF012149030920C006FFF723F800BF6C
:10186000CEE710B580215A48FFF71AF872B65948EA
:101870000078401C5749087010BD10B555480078D5
:10188000401E5449087008460078002802DC0020F9
:10189000087062B680214E48FFF704F810BD10B5FD
:1018A0004D4800884D49098888423AD000F0D8FB5D
:1018B000002804D1484800884849088031E046485B
:1018C000008846490988884212DD434A1278434B12
:1018D0001B78D21AD1B2424A404B1B88D01802F072
:1018E000E9FC04463D48018808193C49088018E095
:1018F0003A4A127864239A1AD1B2394A374B1B8874
:10190000D01802F0D7FC0446344800880019334947
:10191000088064213148008800F0E0FB88B22F493C
:10192000088010BD10B5FFF7BAFF214800780228E3
:1019300006D12748FEF7A2FF40210840002821D108
:101940002848007800281DD027480078002819D1A1
:10195000012211461B48FFF725FE23480278007834
:10196000401C214B18702148815C1648FFF72EFE61
:101970001F4801681F4800F09BFB0F490968401889
:101980000C4908600A48007802280FD10B4800680B
:1019900009490968884209D215480168154800F0CC
:1019A00087FB0549096840180449086010BD00001C
:1019B0003800002034000020100000203C000020EF
:1019C00000ED00E00044004000100240390000201B
:1019D00000040048400000202C0000202E000020C1
:1019E00050020020290000202A000020EC010020E5
:1019F00008000020204E00001CB504461721684650
:101A000001700321417001218170FFF7A3F94C4857
:101A100084422ED101214805FFF750FB21150920F2
:101A2000C006FEF73DFF2115684681801021C17177
:101A30000321817101A90920C006FEF79EFE211530
:101A40000920C006FEF72CFFC021684681800221D4
:101A500081711C21C17101A93A48FEF78EFE012255
:101A600006213848FEF733FF012207213548FEF7EB
:101A70002EFF00216C200153FF20233020805520B1
:101A800020817720A0825520208300202087A087F6
:101A90002420208601216C2001531CBD10B528484C
:101AA0002030808904210840042814D12448FFF7FD
:101AB000EFF82348008AC1B2234802880088401CFE
:101AC000214B18802148815418460088642802DB85
:101AD0000020194608801A482030808920210840BB
:101AE00020282BD11648FFF7D3F815482030808ADC
:101AF00010210840102821D115480078154909788F
:101B000088421BDA124801780078401C104A107095
:101B10001148405C0A49088209484030008A104652
:101B200000780C490978884208D1002009490870DA
:101B3000012189020920C006FEF7B2FE10BD000097
:101B400000540040000400482C00002050020020F7
:101B50002A00002029000020EC0100201FB50121EF
:101B60008804FFF78FFA01210846FFF799FA01214F
:101B70000807FFF7A3FA0221684681818173482193
:101B8000C17303A91C48FEF7F8FD01210846FFF7C1
:101B900077FC022000900021684601710C21417100
:101BA00001218171FEF73BFD05216846017200218C
:101BB00041720121817202A8FFF7CCF80F4800683A
:101BC0000F4908400D4908600E4800690421084388
:101BD0000C4908611FBD10B50748FEF74FFE4108CC
:101BE0000120884310BD10B50220FEF789FD0020BA
:101BF00001F064FB10BD00000004004800700040CC
:101C0000FDFF000000ED00E001460020724A12686E
:101C100001231A43704B1A6000BF6F4A12680223F7
:101C20001A40002AF9D05A026B4B5A601A46526881
:101C300001231B049A43684B5A601A461268012319
:101C40001B069A43644B1A601A4612681F239B06B0
:101C50009A43614B1A601A4612684B1E9B061A4340
:101C60005D4B1A6011225D4B1A605B4A12680123BA
:101C70001B061A43584B1A6000BF574A12680123CB
:101C80005B061A40002AF8D0534A52689208920024
:101C9000514B5A601A46526802231A434E4B5A60FF
:101CA00005E04D4A52689205100E8007800F022809
:101CB000F7D1704700204849096801221143464A7C
:101CC000116000BF44490968022211400029F9D07F
:101CD00041490968D20491433F4A1160114609689D
:101CE000042291433C4A11601115516011213B4A75
:101CF00011603949496889088900374A516011469D
:101D0000496802221143344A516005E0324949686A
:101D10008905080E8007800F0228F7D1704710B59B
:101D20000020FFF70AF900BFFFF713F90028FBD1E5
:101D300029480068012109068843274908607D2455
:101D4000A401601E2649884200D90CE0601E254986
:101D500048610321081F00F007F80020214988612D
:101D60000720086100BF10BD10B5002819DA1E4A0F
:101D700003071B0F083B9B089B00D2588307DC0E10
:101D8000FF23A3409A438B071B0E8407E40EA34056
:101D90001A43154B0407240F083CA408A4001A5149
:101DA00018E0124A03231B02D21883089B00D25862
:101DB0008307DC0EFF23A3409A438B071B0E840787
:101DC000E40EA3401A43094B032424021B19840880
:101DD000A4001A5110BD0000001002400020024073
:101DE000FFFFFF0000E000E01CED00E000E100E08C
:101DF0000146182008709F48704770B504460D468C
:101E000018219C4800F097F92A462146994800F08D
:101E100079F92946204601F08FFB70BD09207047F3
:101E2000FEB506460F461446089D0520C0028542B1
:101E30000DD1012C0BD190A000680190022001ABC4
:101E4000062201210090304601F062F8FEBD052017
:101E5000C00285420DD1072C0BDC88A000680190E0
:101E6000022001AB0F2207210090304601F050F80C
:101E7000ECE70520C00285420AD1102C08DC1020B6
:101E80007F4B192201460090304601F041F8DDE712
:101E900022463946304600F091FF00BFD6E7F8B53C
:101EA00006460F4615461C46122D19D0132D18D084
:101EB000152D10D0182D18D1A078000461780902D2
:101EC0000843217808436F490860304602F07CFCE3
:101ED000FEF789FA0FE020460699FEF7A4FA00BF44
:101EE00000BF304602F070FC05E02A463946304615
:101EF00000F064FF00BF00BFF8BDF8B504460D4612
:101F000016461F46152C03D1F1B22846FEF78BFA70
:101F1000F8BD7047F0B585B005460C46164603A8D7
:101F2000FFF766FF02900F2C39D006DC042C0BD093
:101F3000092C12D00B2C6CD120E0132C38D0182C8B
:101F400041D0192C65D15BE00A204FA322462946D7
:101F50000090304600F0B4FF61E001F03FFB0090DC
:101F600000F0F4F8C7B201F039FB034622462946D7
:101F700000970190304600F0A3FF50E000F020FAF7
:101F8000009000F0E3F8C7B200F01AFA03462246C8
:101F9000294600970190304600F092FF3FE007206D
:101FA0003CA3224629460090304600F089FF36E0E7
:101FB00000200190022001AB2246294600903046C5
:101FC00000F07EFF2BE02F480068FF210904084045
:101FD000010C684601742B480068FF210902084083
:101FE000010A6846417427480178684681740320D5
:101FF00004AB224629460090304600F061FF0EE017
:10200000082026A3224629460090304600F058FFBB
:1020100005E022462946304600F0D0FE00BF00BF52
:1020200005B0F0BDF8B504460D4616461F462A46D3
:102030002146304600F0C2FEF8BD30B50446039D8F
:102040001948824207D1102C05DC10201880192075
:102050002880012030BD0020FCE770470DA07047AC
:1020600012480078704711490978884201D00F4919
:102070000870704742000020001800000A18000095
:1020800036490008080000204D494E444D4F544940
:102090004F4E00005356332E362E30004261756489
:1020A00052617465000000009ECA00005A000020C2
:1020B00030B50B46014600202022012409E00D46E0
:1020C000D5409D4205D31D469540491B2546954068
:1020D00040191546521E002DF1DC30BD70B50024AC
:1020E0002546002801DA01244042002901DA0125B1
:1020F0004942FFF7DDFFAC4200D04042002C00D047
:10210000494270BD03460B439B0703D009E008C951
:10211000121F08C0042AFAD203E00B780370401C97
:10212000491C521EF9D27047D2B201E00270401C25
:10213000491EFBD270470022F6E710B513460A4647
:1021400004461946FFF7F0FF204610BD421C0178F7
:10215000401C0029FBD1801A704730B5044600208E
:10216000034600E05B1C934203D2E05CCD5C401B65
:10217000F8D030BDF0B51FB40646002082B0054649
:102180004024019100901BE0019922460F46304601
:1021900000F042F8049A059B801A994110D310462A
:1021A0001946224600F028F8361A8F410197224638
:1021B00001200021009F00F01FF838184D410090C9
:1021C0002046641E0028DFDC019B00982946324629
:1021D00007B0F0BD064C0125064E05E0E36807CCCC
:1021E0002B430C3C98471034B442F7D3FDF766FFFD
:1021F000B4490008D449000810B5202A04DB014680
:10220000203A9140002010BD914020239C1A0346A3
:10221000E3401943904010BD10B5202A04DB084666
:10222000203AD040002110BD0B46D340D04020249E
:10223000A21A91400843194610BD30B58C18027897
:10224000401C13071B0F01D10378401C120906D153
:102250000278401C03E005780D70401C491C5B1E91
:10226000F9D101E00B70491C521EFBD1A142E6D30B
:10227000002030BD10B5FEF765F9084A9169884223
:1022800007D2081A118A884203D905480078002825
:1022900001D0002010BD012010BD00007000002002
:1022A0000901002010B50A4CE07900280CD0FEF797
:1022B00049F9A16A884208D3401A0121890288425B
:1022C00003D20020E071012010BD002010BD0000ED
:1022D000C800002070B5114C0025616A4A78002AB8
:1022E00007D04989A289914203D100F0CFFC606AEE
:1022F0004570216A487900280ED0C888A28990428A
:102300000AD10648A67905223830FFF7FBFE01F016
:10231000F3FF206A4571A67170BD00006C010020BA
:1023200004E0002100BF491C0329FBD3401EF8D262
:102330007047000010B503490A6B496B5043FFF723
:10234000B7FE10BDC800002010B504460848084973
:10235000C06A496B002804DB6043FFF7A9FE00193F
:1023600010BD40426043FFF7A3FE201A10BD0000DD
:10237000C800002013B56A461278132002400948AD
:1023800002706A4654784470002C03D02246801CA8
:10239000FFF7B8FE0349A41C0846E2B2083801F072
:1023A000BDF91CBD34010020014880787047000051
:1023B000C80000200148007A70470000C8000020D3
:1023C000074808490078020930320007000F8A7078
:1023D000092801D8303000E03730C8700148704714
:1023E000080100206400002010B5074CE0790028A7
:1023F00008D0FEF7A7F8E169884203D30020E07116
:10240000012010BD002010BD7000002010B518493B
:1024100018480A68184C824203D1184A1278D20729
:102420000DD00860E08A0A21484300F057F81248AE
:102430001A3001F0DBFB1048303001F0ACFB606B70
:1024400001F04BFC208B01F01FFC607901F0C6FB12
:10245000512001F0DBF87821002001F02DF97A21DC
:10246000002001F029F9562001F0D0F810BD00003D
:1024700058010020984900086C01002070000020DD
:102480001FB502246B461C730A215973062119706B
:102490000021597005229A70D97001221A715A715F
:1024A0009C71D9711872000A587219460398FFF787
:1024B00061FF1FBD014948707047000018010020EE
:1024C00001490120087170477000002002498A69A3
:1024D00010188861704700007000002070B5044635
:1024E000034D0120E871FEF72DF80019E86170BD79
:1024F0007000002010B5FFF712FCFEF723F8034927
:102500001E3088620120C87110BD0000C800002084
:102510000521C001090240180149486070470000C8
:10252000640100200FB410B503A9044B044A0298BB
:1025300000F024F810BC08BC04B01847DD02000805
:102540000C00002030B47446641E2578641CAB4235
:1025500000D21D46635D5B00E31830BC184702E003
:1025600008C8121F08C1002AFAD17047704700201E
:1025700001E001C1121F002AFBD17047FFB591B0E5
:102580000F460546002606E025280AD0149A13991E
:1025900090476D1C761C28780028F5D1304615B080
:1025A000F0BD002400940121F34A029400E00443AA
:1025B0006D1C2B780846203B98401042F7D12878B4
:1025C0002A280ED0022128780246303A092A15D846
:1025D000009A0A235A43303A80180C436D1C00902D
:1025E000F1E701CF0090002805DA01204003044301
:1025F000009840420090022004436D1C28782E2849
:1026000015D10420044368786D1C2A280AD101CF13
:102610006D1C02900BE002990A2251433039401898
:102620006D1C02902878014630390929F3D92878A1
:102630006C2810D006DC4C281AD068280ED06A28E6
:1026400017D104E0742813D07A2812D110E00120A9
:10265000400504430CE00121090501E003210905BF
:102660000C436978814203D10120000524186D1CB8
:102670006D1C287803906E281ED00CDC632831D0A6
:1026800004DC00288AD0582811D1B2E064287BD01D
:1026900069280CD178E073282DD004DC6F2870D025
:1026A000702804D1A7E075286CD078286BD0149AD4
:1026B00013999047761C62E06002400F022807D011
:1026C00003280AD0042838680AD006603F1D56E067
:1026D0003868F11706604160F8E738680680F5E76A
:1026E0000670F3E73878694608740020487404A837
:1026F0000390012003E0386803900020C0433F1D91
:1027000061070FD5002101E00199491C029A01914E
:10271000914213DA8142F7DB019A0399895C00291F
:10272000F2D10BE0002101E00199491C01918142A5
:10273000FADB019A0399895C0029F5D10199009887
:10274000139A401A00902146149B00F03BF901991E
:102750008019461807E0039803990078491C0391F3
:10276000149A139990470198401E0190401CF2D191
:102770002146149B139A009800F014F986196D1CD9
:1027800009E741E033E034E00A200021049005919C
:102790006002410F022905D001CFC21794460329D8
:1027A00005D007E0FF1DFF08FF0003CF06E000B2E1
:1027B000C2179446042902D140B2C1178C460022A8
:1027C0006146944506DA0A460021404291418C4612
:1027D0002D2102E0210504D52B216A461176012125
:1027E00003E0E10701D02021F7E7019154E00A203E
:1027F0000BE0102009E01020049000210420044385
:1028000008200591029003E0082000210591049022
:102810006002410F022905D001CF0022944603290E
:1028200006D006E0FF1DFF08FF0003CF8C4603E043
:1028300080B2042900D1C0B20021019121072BD51B
:102840000399702906D0049A1021059B4A401A4327
:1028500005D00EE040216A461176012108E061466C
:10286000014306D030216A46117603995176022140
:102870000191049A0821059B4A401A430CD16146F4
:10288000014301D1610707D530216A461176012144
:1028900001910299491E02910399582904D037A148
:1028A00003910FA90F910DE039A1F9E76146059B4E
:1028B000049AFFF75FFC039B8C469B5C0F9A521EA9
:1028C0000F92137061460143F0D10F9807A9081ABF
:1028D00020300390600704D501200004844302984F
:1028E00001E0012002900399884201DD401A00E0D6
:1028F000002041180290019809180098401A009091
:10290000E00306D42146149B139A009800F05AF86D
:1029100086190020049008E006A9085C149A13990F
:1029200090470498401C761C049001998842F3DB80
:10293000E0030CD52146149B139A009800F042F84E
:10294000861904E0149A302013999047761C029956
:10295000481E02900029F5DC08E00F980F990078D6
:10296000491C0F91149A13999047761C0399481E9D
:1029700003900029F1DCFBE60928010030313233F5
:1029800034353637383961626364656600000000AB
:102990003031323334353637383941424344454695
:1029A00000000000F8B5044600251E4617468804BE
:1029B00004D405E039462020B0476D1C641EF9D5CB
:1029C0002846F8BDFFB50446002581B01E46C80361
:1029D00001D5302700E02027880404D505E03846DB
:1029E0000399B0476D1C641EF9D5284605B0F0BDAB
:1029F000090710B5090FC00705D0032902D102202D
:102A000001F00DF910BD05484079002802D0FFF70C
:102A100071FD10BD01F070F910BD0000C80000206C
:102A2000F8B507461F4C002060710878164600076D
:102A3000000F0D46032802D005281FD111E0012503
:102A4000ED027819E06101F011F9206901F0B3F8A5
:102A50006178E06B01F0BBF86078C0014019A061BB
:102A600014E0207A032809D0002E07D02846062239
:102A70000D490830FFF771FB002802D001F03CF946
:102A800004E032462946384600F0B8FB532000F0F7
:102A9000BDFD0649042000F0E2FD562000F0B6FD21
:102AA000F8BD0000C8000020AB0000206F0100202E
:102AB00070B53D4C0646207A002824D0A078401CF2
:102AC000A070E078002801D02820A070607900254F
:102AD000002808D0606A091A206A301A00F03EFB0C
:102AE00025716571A581A07827281AD8FF20193093
:102AF00001F0CAF8A07801F071F80020FFF7E6FCB9
:102B000001F007F970BD512000F080FD78212020F0
:102B100000F0D2FD562000F079FD6420FFF7D6FCCE
:102B200070BD60890101081AFF30193001F0ACF85E
:102B30002520A0706069FFF707FC8619606980098D
:102B4000FFF7C4FCA089401CA0816089301A01F005
:102B5000C4F8A07801F042F8512000F057FD782128
:102B6000002000F0A9FD7A21002000F0A5FD5620EC
:102B700000F04CFD0D4805220078D20141004118BB
:102B80008901891862699142CAD2A179491CC9B2E6
:102B9000A1711729C4D3A571002802D000F02AFE24
:102BA00070BD00F0CCFD70BDC80000200A010020FF
:102BB00010B50A492520887000228A7101F00EF8AC
:102BC000FF20193001F060F8002001F01DF801F03D
:102BD000A0F8002001F06AFB10BD0000C800002032
:102BE00010B50C480078000702D001F085F810BD40
:102BF000782001F049F8012001F011F805480E385D
:102C0000C1698069081809210902401801F02EF8ED
:102C100010BD0000D6000020F8B506460D46022083
:102C200000F0FDFF2320C001174C2818E061A178B7
:102C3000252906D16289002A03D0FA214A431018B7
:102C4000E06101F013F810486946C08908800098D7
:102C500000F0B1FF2178A06B00F0B9FF20780121CE
:102C6000C001C9024018A061A07825280AD12662B7
:102C70006562A089112802D22079002802D00120A3
:102C800020716071F8BD0000C800002070B50F4CC5
:102C90000546606A0178E1714088208250214843EE
:102CA000FFF752FB40196063606A81886182C188C6
:102CB000A182E289914200D9A2820089E082E07972
:102CC000034948434018208370BD00006C01002078
:102CD000E204000070B5044600781F4D4006C00FA6
:102CE000287128460622A11C3D30FFF70BFA0E344E
:102CF0002846042221463030FFF704FA28460322F2
:102D0000211D1A30FFF7FEF9E079E871617A207A27
:102D1000090240182882E17AA07A090240186882E4
:102D2000617B207B0902401880B2A882E989884231
:102D300000D9A982E17BA07B09024018E8820648FD
:102D40002146052210313830FFF7DCF9607DC006DE
:102D5000C00E287270BD00006C0100207FB50AA46F
:102D600070CC80070194800F039602956C4620700A
:102D7000092060706172A272100AE072237301A9C7
:102D8000009800F020F87FBD05000400010000005D
:102D9000000000000EB507A106C980070091800F52
:102DA00001926946087207204872029800F00BF8F9
:102DB0000EBD0000030004000317000010B50A2335
:102DC000FFF7CCFF10BD10B5FFF7D4FA10BDFFB56B
:102DD00087B01E466F46109B119A05463871092030
:102DE000787105200C463872002179720420B8727F
:102DF000F972601C387301207873B973F873052079
:102E0000C0023974834213D105A8009006AB314645
:102E10000998FFF712F900280AD06946088B487311
:102E2000888AC87302A90198FFF7CDFF0BB0F0BDE7
:102E300021462846099AFFF7C1FFF7E7FFB587B09B
:102E4000079817468007800F6A4610700A20507056
:102E50000020507106211171D0710421917105215A
:102E60001172012151721E46D0720446134D1AE0B0
:102E700020460A21484341194988B94211D3B14239
:102E80000FD80A214C43611989786A469172285AF1
:102E90001073000A507301A90098FFF794FF0BB05C
:102EA000F0BD641CE4B2FEF7B9FFA042E0D83A4698
:102EB00008990798FFF782FFF1E70000DC48000857
:102EC000F0B589B00E4607461D461C2101A80E9C90
:102ED000FFF731F9B807800F69460870601D487028
:102EE000601C0871000A4871042088710020C871B4
:102EF000761C0E7201A904E02A5C0B18401C5A7162
:102F0000C0B2A042F8D30098FFF75DFF09B0F0BD52
:102F1000F0B589B08446002468460E9D0471447162
:102F200004268671C471112606722E1D46728172A6
:102F3000C472027344730A2001AF002105E05A5C99
:102F40003A54401C491CC0B2C9B2A942F7D3011F70
:102F50006A46117161468907890F117050703946B0
:102F60000098FFF730FF09B0F0BD0000FFB589B051
:102F7000099815218507129E4902AD0F1F468E4202
:102F800021D16846FEF734FF0146684605710023EB
:102F900043710078801CC2B2122A00D91222941CFC
:102FA0006D462C72200A68720426AE72EB720920FC
:102FB00028736A73AE73EB7304A8921EFFF7A2F82E
:102FC000241D6C713FE0614886423ED10B98072872
:102FD0003BD15F480078002837D06B461D71172120
:102FE000197200215972042199720021D9720921A4
:102FF000072019735873082098730020D873022093
:1030000018745974002199742921D9742A211975C9
:103010000A225A7500249C75D8750B251D7600254B
:103020005D7626259D760E22D9761A7700225A776C
:1030300098770F24DC7708AB1A70282058709970A5
:103040001B206B46587102A96FE0FF2F00D9FF27A4
:10305000002471E020460A2148433E490A5AB24200
:1030600068D1411848880B9A904263D3B84261D81E
:10307000364A521E964223D10A226E4632720023ED
:1030800073720422B272F3720922327308227273CD
:103090000A2254432F4AA2189278B273000AF0739E
:1030A000002002AA0B181418401C1B79C0B223720E
:1030B0000528F7D3487A707535710E20707133E0AA
:1030C00009266F463E7200237B720422BA72FB729D
:1030D0003E7307227A730A2254431E4AA21892783A
:1030E000BA73000AF873184602AA0B181418401C89
:1030F0001B79C0B223720528F7D33D710D2078717A
:10310000497AFF2910D0144B00200901C9180B5C23
:103110001418401CC0B2E3721028F8D31B20787139
:10312000172038721520787311460198FFF74BFE6F
:103130000DB0F0BD641CE4B2FEF770FEA04289D869
:1031400009AB07CBFFF73AFEF2E7000003280000C7
:103150005E000020DC480008364900084B22D200FF
:10316000084B821A9A420CD27D22D200064B8A1A50
:103170009A4206D2FA224243531A044AD362516356
:1031800010637047A81D000019661800C8000020D1
:1031900010B5FEF78FFD00F0AFFD10BD7FB5282103
:1031A000484308490A9D099C48616E460846B6880E
:1031B000C6818A630B706E46308C0882CC634D707A
:1031C0007FBD0000C8000020034902480860406835
:1031D0000047000078490008580100200649087897
:1031E000002806D0022804D001D9401E0870012012
:1031F00070470020704700006401002070B5084649
:103200001B4B1A4919601146FFF764FD194C1A4906
:10321000608A801F884208D2E08A091F0A388842E3
:1032200003D2207A401F0C2802D300F065FD70BD48
:10323000012000F025F8114D012128780843E321F1
:1032400008402870608A4100E08A814200D288B23A
:103250000A214843FFF742F928789F210840287047
:1032600000F04AFD0020607070BD00009849000821
:10327000580100206C0100207B0C00007000002031
:1032800001490870704700006401002010B509482A
:10329000007900280CD0084800680078002807D181
:1032A000FFF700F8002801D0FFF772FF00F0B6FA30
:1032B00010BD000070000020580100207CB57F4C3C
:1032C0002179032911D0012971D0022901D10321CB
:1032D0002171A081A079002801D101F089FAA1799A
:1032E0002079014301D0002861D100206071744E23
:1032F000744D0BE06079022808D1FEF7BBFF00286F
:1033000004D02079002801D1FEF740FA3068007817
:1033100000280ED12079002805D1FEF7C3FF002830
:1033200001D0FFF735FFFFF745F8002801D1FEF780
:10333000F9FAFEF750FC002873D06048401D00F0F9
:103340001DFC6079C10710D0694601A800F0B4FAED
:103350005D48009901605D4A01981060326892688A
:103360009047FDF7EFF8A06199E0810719D569460C
:1033700001A800F0A1FA00F0BFFC30680099826952
:1033800001989047FFF710F8252803D14B480078A3
:10339000800703D530680078012801D1FEF7C2FA12
:1033A0007DE0C10604D530684069804777E084E05D
:1033B000010637D5306843490078002812D0012033
:1033C00000F0AAFA697828780902401881B23068BA
:1033D000C26801209047607941061CD5684600F01C
:1033E00087FA33E0002000F097FA6978287809021C
:1033F000401881B23068C268012090476079410668
:1034000004D5684600F074FA306841E0800644D480
:1034100045E02C4939E0800641D5684600F068FA5D
:103420002FE044E0410615D5684600F061FA3068A7
:10343000007800280AD128780007000F052805D158
:103440001E4A20490832002000F084FA30686A7869
:103450000369DEE7410701D4010705D53068002183
:10346000C268084690471AE0810614D5684600F005
:103470003FFA3068017800290AD01249012000F093
:103480004BFA30686A78036900210098984706E093
:1034900000220369BDE7002801D000F02DFC20794F
:1034A000002800D126E76079802806D122E720791C
:1034B0000028F7D060790028F4D17CBD700000208E
:1034C00058010020F20200205C0100206001002071
:1034D00010B5074C6079022806D1FEF7CBFE002814
:1034E00002D02079032801D0002010BD012010BD9A
:1034F0007000002070B50546FDF724F804460A3434
:10350000FDF720F8A042FBD30349022008712846AA
:10351000FFF7D4FE70BD00007000002010B5054913
:10352000087000090001491D001D087001F08AF9AA
:1035300010BD00007900002030B5182900D91821ED
:103540000A4B4A1C1A70002204E0845C9D18521C2D
:10355000AC70D2B28A42F8D3002003E05A18491C5A
:103560009070C9B21929F9D330BD00009000002035
:1035700070B50D46124A01461078002809D0401E49
:103580001070002656705068092806D0401C506004
:1035900005E001205070002070BD304656600C22BE
:1035A000084B4243D41842018018074A80182A4623
:1035B0002060FEF7A7FD25712046A66070BD0000C3
:1035C00010010020980400204C03002010B500F0EA
:1035D00076FB0020FEF79CFF10BD000000A07047A6
:1035E0004D475F424C455F4C49420000014800781E
:1035F0007047000010010020034800780A2801D01D
:1036000000207047012070471001002010B50446CB
:10361000FEF715F801215020FDF7FCFF012120469F
:10362000FDF7F8FFFEF712F810BDF8B515460E4687
:103630000446FEF704F801212046FDF7EBFF07469C
:10364000002406E00021FF20FDF7E4FF3055641C54
:10365000E4B2AC42F6D3FDF7F9FF3846F8BD70B5D9
:103660000C460546FDF7EBFF01212846FDF7D2FF8A
:103670000021FF20FDF7CEFF2070FDF7E7FF70BDB2
:10368000F8B516460D4604460027FDF7D8FF202062
:1036900020430121FDF7BEFF002407E02878012127
:1036A0006D1CFDF7B7FF641C0746E4B2B442F5D3C6
:1036B000FDF7CCFF3846F8BD70B50D460446FDF762
:1036C000BEFF202020430121FDF7A4FF0121284651
:1036D000FDF7A0FFFDF7BAFF70BD0168002902D118
:1036E0004068002801D0002070470120704700008A
:1036F00000210160416002490A2008707047000003
:10370000100100200268136812790A700168896844
:103710000160002900D141601846704710B50B4682
:10372000044611461846FFF723FF002806D06168BB
:10373000002901D0886000E02060606010BD1CB5E9
:103740005320FFF763FF03211F20FFF7B5FF01A9F7
:103750001F20FFF784FF684600790028F7D1032176
:103760001F20FFF7A9FF01A91F20FFF778FF684678
:1037700000790028F7D101211520FFF79DFFA02136
:103780001220FFF799FF04210A20FFF795FF00217F
:103790000A20FFF791FF88211220FFF78DFF0124F7
:1037A00069460C702120487002221320FFF768FF41
:1037B00069460C702020487002221320FFF760FF3A
:1037C00000211520FFF778FF5620FFF71FFF1CBDD3
:1037D00008B50020694608705120FFF717FF5320F5
:1037E000FFF714FF69461F20FFF739FF6946087885
:1037F00008BD000010B55120FFF708FF5320FFF768
:1038000005FF03211F20FFF757FF5620FFF7FEFE9D
:1038100001490120487010BD0801002038B5254C31
:10382000A078012838D16078002835D0012834D01C
:10383000022831D1FFF7CCFF00282DD1012115201E
:10384000FFF73AFFA0211220FFF736FF04210A20DC
:10385000FFF732FF00210A20FFF72EFF88211220F8
:10386000FFF72AFF012569460D70212048700222CA
:103870001320FFF705FF69460D70202048700222D3
:103880001320FFF7FDFE00211520FFF715FF56203E
:10389000FFF7BCFE0020607038BDFFF799FF0028DD
:1038A000FAD103211F20FFF707FF5620FFF7AEFED6
:1038B0000220F0E7080100207CB50D4604460622F0
:1038C00069461020FFF7B1FE694648790B7902047A
:1038D0001802C9781018401869462060887849781D
:1038E00000040902401869460978401828607CBD28
:1038F00038B50446032269461020FFF796FE684655
:1039000080780104684642781002091868460078F9
:103910000818206038BD00007CB50D4D0C4600280D
:1039200011D0022269460620FFF77FFE6846007824
:103930002070684640786070684600782870684655
:10394000407868707CBD022269460420ECE70000E4
:103950000B01002070B513460C46002809D0627890
:10396000901C1870002A03D0A11C6120FFF75DFE97
:1039700070BD1C49254648780835821C1A700978A4
:1039800021700907090F60700B00FEF7DBFD0706C9
:10399000090614051A060500EAE70622A11C08E03C
:1039A0000C28E5D10622A11C0A20FFF73EFE0622C4
:1039B00029460B20DAE70C28DAD1062229460A200C
:1039C000D4E72228D4D10622A11C0B20FFF72DFE1C
:1039D000062229460A20FFF728FE162221460E312C
:1039E000C3E700000B010020FEB50546002668462F
:1039F00006715F4C51200C60FFF708FE01A91F20E3
:103A0000FFF72DFE684601798029F7D159491E201C
:103A1000FFF725FE78210020FFF74EFE062108461D
:103A2000FFF74AFE7A210020FFF746FE5320FFF7FA
:103A3000EDFD88211720FFF73FFE88211820FFF7B2
:103A40003BFE88211920FFF737FE00211520FFF7E4
:103A500033FE02210120FFF72FFE1E211D20FFF75C
:103A60002BFE4548FEF75CFC284600F0F4F800A960
:103A700008200131FFF7F3FD684640783D4F0028EC
:103A800007D112206946487038781B2801D21520CA
:103A90004870C021684601702D218170032269465B
:103AA0000420FFF7EDFD8025684605704670022270
:103AB00069460C20FFF7E4FD1C2168460170457043
:103AC0003878192802D1CC2069460870022269464C
:103AD0001420FFF7D5FD10206946087002274F70AB
:103AE0003A460A20FFF7CCFD69460F701220487055
:103AF00002220D20FFF7C4FD01206946087007204F
:103B0000487002220E20FFF7BBFD3820694608707E
:103B10000F2048708E7003220220FFF7B1FD712143
:103B20000920FFF7C9FD69460D70702048702120FB
:103B300088704020C87004220B20FFF7A1FD56209A
:103B4000FFF764FDFF210E20FFF7B6FD06220849AE
:103B50000820FFF76AFD60796D2806D1ED206071BD
:103B6000062203490820FFF78BFD00F0C5F8FEBDD3
:103B7000AB000020080100208813000038B504467F
:103B800069460E20FFF76BFD6846017821700E2014
:103B9000FFF792FD38BD1CB501786A461170417877
:103BA000517081789170C078D070042269460C20E1
:103BB000FFF766FD1CBD01B582B06946087A087042
:103BC000487A487002220320FFF75AFD0EBD0A46CC
:103BD00010B50146A020FFF753FD10BD10B52828F1
:103BE00003D201460120FFF767FD10BD1CB5017827
:103BF0006A4611704178517080789070032269464E
:103C00000D20FFF73DFD1CBD1CB5FF216A4611705C
:103C10005070022269460E20FFF732FD1CBD10B520
:103C200004280BD001280BD002280ED003280ED078
:103C300005280ED0062807D1042102E0022100E069
:103C400009210220FFF738FD10BD0C21F9E7012101
:103C5000F7E70321F5E708B502216A4611705070B5
:103C60000A4669460F20FFF70BFD08BD1CB56A46E2
:103C70001070010A5170000C9070032269460720F1
:103C8000FFF7FEFC1CBD00001CB56A461070010A5F
:103C90005170002191700549884201D9012090702E
:103CA000032269461120FFF7EBFC1CBDFFFF00005B
:103CB0000A4610B50146A020FFF7E2FC10BD01B591
:103CC00082B06946087A0222C006C00E0870487A9F
:103CD00048700520FFF7D4FC0EBD1CB500216A46D4
:103CE00011705070010A9170000CD0700422694666
:103CF0000F20FFF7C5FC1CBD1CB5022069460870EB
:103D0000FF2048708870C87004220F20FFF7B8FCAD
:103D10001CBD10B501210F20FFF7CEFC10BD000027
:103D200038B5054600230C4610460093FFF7D5FC36
:103D3000002802D02B70237038BD69461046FFF76B
:103D4000E1FC0146684602782846FEF7DBF9684642
:103D50000078207002480178491C017038BD0000CD
:103D60001001002010B50548034981600021417011
:103D70001430FFF7BDFC10BD944900081801002065
:103D80007047000000B587B0182209A16846FEF709
:103D9000B9F90D480321017018214170801E408837
:103DA000694608830698FEF7E5FA07B000BD0000F3
:103DB000101000280001002C011820000300FFFF54
:103DC000FFFFFFFFFFFFFFFFBE0000203EB5002208
:103DD0008C070E490092A40F01920C7006244C70BF
:103DE00002236C46237062700179A1704079E07003
:103DF0000D2020711A20607104486946801E408899
:103E000020810298FEF7B6FA3EBD0000BE000020F9
:103E10001FB508A007C86B4607C3094803210170F6
:103E200009214170801E4088694688810398FEF709
:103E3000A1FA1FBD09000000000000000000000002
:103E4000BE0000203EB500228C070D490092A40F51
:103E500001920C7006244C7002236C462370627031
:103E60000179A1704079E0700520207160710448EB
:103E70006946801E408820810298FEF77BFA3EBD8D
:103E8000BE00002008B589070748890F017000218E
:103E90004170801E4088694608800098FFF796FBB5
:103EA0000420FFF7EDF908BDBE0000201CB509A1F4
:103EB00009680091084903220A7002224A70694683
:103EC00048700548801E408888800198FEF752FAA5
:103ED0001CBD000007000000BE0000200EB509A0B8
:103EE00005C8009089070948890F019201700621D1
:103EF0004170801E4088694608810298FEF73AFAB0
:103F00000EBD00000C079C0517200000BE0000201D
:103F1000FEB5154C01A92246083A2046FFF700FFDE
:103F20006846007901262546002801D12E70687068
:103F300021780D4F132001401C3F78780423C243A1
:103F400052081A4040071143C00FC00001436A469F
:103F5000117060785070A11C009800F05DFC2E700C
:103F600000207870FEBD000034010020FEB50D4633
:103F7000002102911D2D00D91D2501462A469B488E
:103F8000FEF7C0F89A48994C05702078984A810746
:103F9000890F9070012914D0032917D002290FD15D
:103FA000637921791B02A579C91806294BD0042908
:103FB00050D0052904D1132D02D00020FEF760FA5D
:103FC000FEBD022DFCD3FEF748F8FEBDA1780B0024
:103FD000FEF7B8FA120B0F1E233535350A28353592
:103FE000352D0A35320A0A35EFE7E01C00F012F9E8
:103FF000FEBD01467D48FFF7C3FE617A207A0902C3
:1040000040186946088102A9E01C00F035F9FEBDA0
:1040100001467648FFF736FFFEBD01467348FFF7BD
:10402000D5FEFEBD01467148FFF7F2FEFEBD01461A
:104030006E48FFF753FFFEBDFFF7A4FEFEBD084626
:10404000FFF734FFFEBD012DFCD101466748FFF7A5
:10405000F9FEFEBD66490C31102D72D00ADCAE1E91
:104060003300FEF76FFA0B1D15221536155415890E
:10407000159415005D4B0933182D7BD004DC122DEF
:1040800079D0162D04D192E01E2DE2D0522D72D09F
:104090006906DED4062300222946FEF75FFEFEBD38
:1040A00000222946FEF776FEFEBD237AE2791B0246
:1040B000D21892B20A80637AA47A24021B199BB2A6
:1040C0004B809A4201D90123E6E72946FEF7B6FE66
:1040D000FEBD237AE2791B02D21892B20A80A67A38
:1040E000637A36029B199BB24B809A42EBD8267BAF
:1040F000E17A36028919667BA47B89B224023419DD
:10410000A4B2009101942946FEF761FEFEBD237A18
:10411000E2791B02D21892B20A80A67A637A36023A
:104120009B199BB24B80E67A247B24023419A4B2FB
:104130008C809A42C7D829460094FEF717FFFEBD2F
:10414000FFE7237AE2791B02D21892B20A80A67A9C
:10415000637A36029B199BB24B80E67A247B240259
:104160003419A4B28C809A42ADD829460094FDF748
:1041700057FEE4E724E027E0237AE1791B02C9181F
:1041800089B2918002462846FDF7C4FED7E7237A1C
:10419000E1791B02C91889B29180A37A627A1B0265
:1041A000D21893B202462846FDF73CFFC7E7217AB2
:1041B000E0790902401890800C4800F0E2FABEE76E
:1041C0000A4800F0A1FABAE7E178A6780902C91E08
:1041D0007118CEB2E179247A2402091989B291804A
:1041E0000A4629460096FDF75AFEA8E7100500206A
:1041F0001801002013B56A460448127802706A4616
:10420000527842700248FDF77DFF1CBDBC000020C3
:104210002603002030B5164B0122596A4A700278F5
:104220000A7084784278240212194A800479C2788C
:104230002402121992B28A80857944792D02641978
:10424000CC80057AC4792D0264190C81447A807A75
:104250000002201880B200244881062A00D24C7047
:104260009A89801A034A904200DB4C7030BD0000EE
:104270006C010020FF7F000010B50A4C0346206A45
:104280000988C18005221946FDF73CFF206A0121FB
:104290004171C188A289891A034A914201DB002138
:1042A000417110BD6C010020FF7F000010B5FEF7CA
:1042B00015F910BDF8B50C460746002614E0142C7D
:1042C00001D9142500E02546FFF790F903280FD304
:1042D000084800950288BB191B21022000F025FA2E
:1042E0007019C6B2601BC4B2002C01D0002FE6D1F9
:1042F0003046F8BD5C000020F0B50C4B00201C4699
:10430000987138340A4A58720125C1084607615C21
:10431000760F2F46B740394203D0597A5054491C82
:104320005972401CC0B22528EFD3F0BD6C010020AB
:104330003A05002010B5C00706D10448FB220178D9
:1043400011400170FFF7D8FC10BD00007000002084
:10435000F8B5064633480C46C08A0A21154648433C
:10436000FEF7BCF8304F042138780843E7210840B5
:104370003870FDF776FA002C03D06078002818D04A
:104380001BE04120400105213018264CC90140188E
:10439000E062FFF76BFC1B2D00D91B25E801311AE9
:1043A00005200002081AA0623878102108433870EE
:1043B00035E0387808210843387081200001194918
:1043C0003018C862FFF752FCE8010121301A890257
:1043D000411A144881622078FEF76CF83878227808
:1043E00041061207C90FD20F914218D10D4C01217D
:1043F00021704021484038700C48006800688047B0
:10440000FDF73BFA002060705320FFF7FFF8E11C36
:104410000420FFF724F95620FFF7F8F8F8BDFDF760
:104420002CFAF8BD6C010020700000202001002053
:10443000F8B50F460646FEF7D1FE8C4D00282878C9
:1044400026D08B4CC10737D0022108432870208A20
:10445000502148432830FDF777FF80196063FFF74C
:104460004BFF206A00264671606A4670A68126705E
:10447000FFF778FCA671E0797E4948434018208315
:104480000120FDF7F0FDFDF795FF022810D0B0E008
:10449000FD21084028700020FEF718F8FDF78AFF7C
:1044A000022802D18020FFF739F800F0A1F9F8BD09
:1044B0008220FFF733F89CE0207800280FD06E4967
:1044C0000120FFF729FA6A466B490120FFF742FAFB
:1044D000684601786848FFF749FD00202070287879
:1044E00040073DD5A06A0121381A0906401800028C
:1044F000000AFDF71FFF371A287800070ED5A08A9B
:1045000000280BD0FFF778F8002807D0606A4078C1
:10451000002803D1206A4079002809D0608A502100
:1045200048435038FDF710FFC019606360894CE0C4
:10453000608AA18A41430818502148435038FDF74A
:1045400003FFC0196063A189A08A0918A181217A9B
:1045500048432521FDF7ACFDA0790818A071E5E7D7
:10456000608A082801D20121A17044493D280F68C2
:1045700007D2502201465143C20080180009081A90
:1045800002E0502148431938FDF7DEFEC019606390
:10459000608A092806D26178484306214843354994
:1045A000FA3107E0112807D26178484306214843D1
:1045B0007D210901401808E03D2805D26178484373
:1045C000062148432E49F5E72E482083606B0A36C2
:1045D000B04200D26663A078002804D12A49606BFB
:1045E0000988401A6063A089401CA081606BFDF7B8
:1045F00071FEA079217A4018C0B22521FDF758FD3F
:104600001B4BA171CA0838339A5C4B0708465B0FF5
:10461000012199400A4205D1617AFDF749FD16480A
:104620002538405C6071FDF7C5FE022805D1287869
:10463000800702D500F0DCF801E0FDF7E7FE2878FE
:10464000C10704D040084000287000200BE0A0788B
:10465000002805D00020FDF739FF0020A070F8BD2C
:10466000608A81080818FDF731FFF8BD700000204E
:104670006C010020E20400005F05002060010020C2
:10468000C4090000204E0000D200002010B50648EA
:104690000078C00604D500210846FFF74BFE10BD88
:1046A000FFF72AFB10BD00007000002070B50D461A
:1046B000FDF79AFE002809D1114C6078322805D800
:1046C000618A4143E08AC000814205D90020FEF79B
:1046D000D7FDFFF711FB70BD0420FFF7A0FAC32040
:1046E0004001A1782818002904D10649FA22098836
:1046F00051430818FFF7BAFA6078401C607070BD2B
:104700006C010020D200002008B502216A46117019
:10471000052151700121817019218171811C00983E
:10472000FEF751FBFDF7F5FB08BDFFB58BB0149C00
:104730001D461746E61C242101A8FDF7FCFC0B983A
:104740001321084069460870E01D48700E71300A58
:104750004871042088710020C8710C9808724F724B
:10476000380A8872002001A904E02A5C0B18401C5A
:10477000DA71C0B2A042F8D30098FEF724FB0FB064
:10478000F0BDF8B50446827AC178007AE579000276
:104790000543A07809020843401F87B2667A1002D9
:1047A0000643022069460870607848701720A0719F
:1047B000A11C0098FEF707FB214633463A460B3111
:1047C0002846FDF79AFBF8BD0EB507A106C980077C
:1047D0000091800F01926946087205204872029884
:1047E000FEF7F1FA0EBD0000010004001300000006
:1047F00010B500F027F807480078800707D405486F
:10480000401C0078800702D40020FDF72CFCFEF746
:10481000DBFC10BD7000002073B50D460098FFF75B
:104820004EFA68464478002C03D021462846FFF70C
:104830003FFA2046FDF76CFE29460098FFF7DAFCA8
:104840007CBD000030B585B003A8FDF7D1FA6946FC
:10485000097B182902D918216A46117369460A7B17
:104860001C4B511C1970002104E0445C5D18491C6C
:10487000AC70C9B29142F8D3002003E09918521CE1
:104880008870D2B2192AF9D31249124A0C46203C38
:10489000A5780E3A03231B20002D01D00E4A2B468B
:1048A000E578002D02D00C4928461F3102900948B6
:1048B00001912038C0896D46288006482038417A09
:1048C0002974807A6874A0890499FEF767FC05B0A2
:1048D00030BD000090000020B40200200328030037
:1048E000020400002AFF03280800020900292AFF09
:1048F00003280A00020B00262AFF03280E00020FDD
:1049000000282AFF032811001012000000010229CC
:1049100013000A0000000000032814000C1500001A
:104920000002032817000A180000000301291900DB
:104930000200000000009ECADC240EE5A9E093F30B
:10494000A3B50100406E9ECADC240EE5A9E093F3F6
:10495000A3B50300406E9ECADC240EE5A9E093F3E4
:10496000A3B50200406E9ECADC240EE5A9E093F3D5
:10497000A3B50400406E000000000000B12B000849
:10498000192C0008F1290008212A0008E12B000851
:10499000B12A0008113F00080100000000000000DB
:1049A000AD46000835430008514300088D46000815
:1049B00031440008D449000800000020B80100007C
:1049C0003A2200084C4A0008B8010020C80500003F
:1049D0006E25000891031380259D01020304010246
:1049E0000304060708090212320B114D494E444DCB
:1049F0004F54494F4E32122564010179CB4656205F
:104A0000202E332E352E39DD800900A000842104AC
:104A100000020106022B094201361A030020B232BD
:104A2000206225420102201033813133580A0412DA
:104A30006FE80902240A0242FF33DC05021204096E
:0C4A400025B00100202E05002000000021
:04000005080000B53A
:00000001FF
